:400000000080002011000000290800002908000008B5044B1A6803F53F5302331A6000F023FC00BFFA46004010B5054C237833B9044B13B10448AFF300800123237010BDF6
:400040004881FF1F0000000080230000084B10B51BB108490848AFF300800848036803B910BD074B002BFBD0BDE81040184700BF000000004C81FF1F80230000C880FF1FBC
:400080000000000000B583B062B62F4C47F6FF70208000F0EDF9238843EAC0302080012001F07AF8012001F0DFF901F063FA01F065F800F059FF00F06BFF01F0B3FB01F0FF
:4000C000ABFC01F025FC01F0DBF9204B187001F0DFF91F4B1870002000F062FF28B100F077FF00F0ABFF1B4B18601B4800F042F81A4800F09DF81A4800F0A6F9194801F0F5
:400100006BFA002144F2010000F0C2F9012144F2010000F0BDF9104800F0E8F8124B1B7813F0FF0FF7D000220F4B1A700C498A68CB69096B0D4C00910D49204601F0FCFCE4
:40014000204601F049FAE6E70887FF1FA186FF1FA386FF1FF08EFF1F0C87FF1FE881FF1FF48EFF1F84230000EC8EFF1F9481FF1F9423000010B40024A0F8D047A0F8D247FA
:40018000A0F8D44712E0A300234499004318002242529A7007E004EB84018B00034413440021D97001320F2AF5DD0134632CEADD10BC704730B4B0F8D0379BB20C8803EB40
:4001C00083039A008452B0F8D0379BB28C7803EB83039A000244947000240BE0B0F8D0379BB20A19D57803EB83039A0002442244D57001340F2CF1DDB0F8D02792B20132E3
:400200000A4B83FB0231D317C3EB6113642101FB13239BB2A0F8D037B0F8D4379BB201339BB2A0F8D43730BC704700BF1F85EB5110B40023A0F8B034A0F8B234A0F8B43442
:4002400009E05A001A449400011900224A708A6002554A600133632BF3DD10BC704700BF30B4B0F8B444A4B2632C38D8B0F8B044A4B204EB4404A50005446A70B0F8B024AE
:4002800092B202EB420294000444029AA260B0F8B02492B202EB420294000155B0F8B02492B202EB4202910001444B60B0F8B02492B201320C4B83FB0231D317C3EB6113FB
:4002C000642101FB13239BB2A0F8B034B0F8B4349BB201339BB2A0F8B434002001E04FF0FF3030BC704700BF1F85EB51B0F8D2379BB203EB83039A00835A9BB245F25362CD
:40030000934272D1F0B583B00446B0F8D2379BB203EB83039A0002449178B0F8D2379BB203EB83039A000244D278B0F8D2379BB203EB8303980020440679B4F8D20780B2E8
:4003400000EB8000850025446B791B0203EB0643B4F8D20780B200EB800085002544AE79B4F8D20780B200EB80008500254495F807E0B4F8D257ADB205EB8505AF00274469
:40038000387A000400EB0E60B4F8D257ADB205EB8505AF0027447D7A00EB0520B4F8D257ADB205EB8505AF002744BD7A2844009033440E48FFF754FFB4F8D22792B2013232
:4003C0000B4B83FB0231D317C3EB6113642101FB13239BB2A4F8D237B4F8D4379BB2013B9BB2A4F8D43703B0F0BD7047E881FF1F1F85EB51B0F8B4349BB2FBB110B4B0F89A
:40040000B4349BB2013B9BB2A0F8B434B0F8B2349BB203EB43039900B0F8B22492B20132084B83FB0234D317C3EB6413642404FB13239BB2A0F8B234084401E0002070473F
:4004400010BC70471F85EB5110B400210BE001EB81039C00021900235371D360137493601371035101310229F1DD10BC704700BF00231A4607E010F0010F01D00132D2B247
:4004800040080133DBB20F2BF5D902F00100704738B505460C46FFF7EBFF45EAC03085B21CB9002000F078FE04E0012C02D1002000F0DAFF284600F013FE00F005FE10F037
:4004C000010FFAD01CB9012000F066FE04E0012C02D1012000F0C8FF00F0FCFD10F0200FFAD000F009FE1CB9002000F055FE04E0012C02D1002000F0B7FF4FF48040FFF768
:40050000B7FFC00340F4804000F4404000F0E8FD00F0DAFD10F0010FFAD01CB9012000F03BFE04E0012C02D1012000F09DFF00F0D1FD10F0200FFAD000F0DEFD38BD00BF7E
:40054000FEE700BFF0B40022174611E050F82760F3B226F0FF0608E001EB420511F812406D78A5550132013BDBB2002BF4D10137192FEBD9F0BC70470A4B1B78DBB203F0E4
:400580000701094A11701B09013213708022074B1A70082203F6D3131A704422A3F28A231A707047CF0100496E5800402D51004008B50A46002101F0B6FA08BD08B501F06C
:4005C000A7FA08BD70B50024374B1C80502202331A70472202331A80182602331E704D2202331A8002331E7041F61F4202331A8002331E7040F6B73202331A801925023338
:400600001D70042229492A48FFF7D8FF0222294B1A7008224FF040231A70032203F500731A70254B1B78DBB2244A1370244B1E8042F25122023B1A800CE0224B1B7803F0D9
:40064000010343EA440404F003044FF4F07001F0F3F9013D0DB1032CEFD115B90320FFF76FFF194B4FF480721A8007221A70002216490A704820023108701A700222033B66
:400680001A7004220A331A70114A137843F01F031370013A137843F001031370013A137843F08003137070BD80400040FC050048004100400043004008010049A146004093
:4006C00022420040254200400440004006400040A2430040012807D8044B53F820201844017A13780B431370704700BFBC230000012808D8044B53F820201844017A1378D1
:4007000023EA010313707047BC23000038B572B66122344B1A70FFF755FF334A137843F00403137000240BE0304863001A19510001440A46098AD068FFF73AFF0134E4B217
:40074000082CF1D900240CE02848A20011194B000344B3F84C20996C586CFFF72FFF0134E4B2012CF0D922494FF09040FFF7EAFE0A24204B1C70204A137843F002031370AB
:400780001032137843F0020313701C4D2B7843F040032B70A2F58632513A137843F010031370224616491748FFF708FF224616491648FFF703FF224615491648FFF7FEFE10
:4007C000224615491548FFF7F9FE154A137843F008031370FFF7D0FE0E2229461148FFF7EDFE38BD00480040E8460040BC230000680000488358004003500140A043004055
:40080000CC05004800510040D8050048C0510040E405004810510040F00500482051004022430040B043004008B501F045F903680C2B00D1FEE7FEE708B5094B1A681044F0
:40084000084BC31A802B02DC054B186005E001F033F90C2303604FF0FF32104608BD00BFCC80FF1F508FFF1F08B5104E104D16E029686B68AC68002204E051F8040B43F833
:40088000040B0432A242F8D1E868002203E0002143F8041B04328242F9D11035013E002EE6D101F00FF9FFF7EDFBFEE7010000007424000008B5104A104B1A60104A136833
:4008C00043F40073136000230AE0032B03D80D4A52F8231000E00C490C4A42F8231001332F2BF2D90A4B1A780A4B1A70074A0A4B1A60FFF70BFF08BD0004FA050CED00E019
:4009000014ED00E000000000290800000080FF1FBC760040C080FF1F08ED00E038B59DF81040651EEDB2032D51D8013809282ED8DFE800F0052D2D052D2D0F192D230F2B7E
:4009400003D92548007840B222E02448007840B21EE00F2B03D92248007840B218E02148007840B214E00F2B03D91F48007840B20EE01E48007840B20AE00F2B03D91C483C
:40098000007840B204E01B48007840B200E0002001EB401101FB02F2D20B91B20D2B0BD8C3F10E0192B20A4191B2621E124800EB82020133937005E0631E0F4A02EB83036D
:4009C0000F229A70013C0C4B23F8241038BD002000F012FD38BD00BF180100491C010049190100491D0100491A0100491E0100491B0100491F0100496881FF1FF8B50746E4
:400A000001F022F806460D4D2B7843F003032B700B4C237843F0030323700A4B1F70032000F0ECFC2B7803F0FC032B70237803F0FC032370304601F00BF8F8BDF846004004
:400A4000F9460040925800402DE9F04104460022C54B1A7401285ED13822C44B1A70042202331A70062201331A70002501331D7001331D703F2201331A7002331D700133AA
:400A80001D7001331D7001260A331E70502203F527631A700A2201331A702C2201331A7001331D70442203331A70482201331A7001331E7002331E70112701331F701922B8
:400AC00001331A70972201331A705220FFF796FFC022A74B1A70032201331A70052205331A70022201331A7001331D7001331D70284600F06DFB43F233329E4B1A603146FC
:400B0000384600F089FB31466F2000F009FC9A491D2000F07DFC022C60D13822934B1A70042202331A70062201331A70002501331D7001331D703F2201331A7002331D70CB
:400B400001331D7001331D7001260A331E70502203F527631A70272201331A702C2201331A7001331D70552203331A705A2201331A704FF00508013383F8008002331E7000
:400B8000112701331F70192201331A70972201331A704420FFF732FF5822754B1A7001331D70053383F80080022201331A7001331D7001331D70284600F00AFB4FF47A42C1
:400BC0006C4B1A603146384600F026FB31466F2000F0A6FB69491D2000F01AFC032C60D13822624B1A70042202331A70062201331A70002501331D7001331D703F2201333A
:400C00001A7002331D7001331D7001331D7001260A331E70502203F527631A70272201331A702C2201331A7001331D70552203331A705A2201331A704FF00508013383F836
:400C4000008002331E70112701331F70192201331A70972201331A704420FFF7CFFE5822434B1A7001331D70053383F80080022201331A7001331D7001331D70284600F057
:400C8000A7FA4FF47A423B4B1A603146384600F0C3FA31466F2000F043FB39491D2000F0B7FB042C5DD13822304B1A70042202331A70062201331A70002401331C700133BD
:400CC0001C703F2201331A7002331C7001331C7001331C7001250A331D70502203F527631A70272201331A702C2201331A7001331C70552203331A705A2201331A7005272A
:400D000001331F7002331D70112601331E70192201331A70972201331A704420FFF76EFE5822134B1A7001331C7005331F70022201331A7001331C7001331C70204600F05E
:400D400047FA4FF47A420B4B1A602946304600F063FA29466F2000F0E3FA0A491D2000F057FBBDE8F08100BF6881FF1F004E004094580040448FFF1F891000008D100000D7
:400D800091100000951000002DE9F04182B0394D4FF0010885F80080374E00247474102000F028FA102000F0A9FA07211D2000F043FB0427314B1F7001331C7007331C70C4
:400DC0002F4A137843F0180313702E4B1C7003F2F5231C7001331C700A22A3F209331A7001331C7002331C705B2205331A705E2201331A7004331C701422A3F68C231A7070
:400E0000CDF8008010234FF4004248F6F0510220FFF784FD0223009310234FF4004249F2DA012046FFF77AFD0323009310234FF4004249F2DA012046FFF770FD009710232A
:400E40004FF4004249F2DA012046FFF767FD2B78013B06EB83039A780B4B1A702B78013B36F82320094B1A802878FFF7EDFD02B0BDE8F081D080FF1F6881FF1F96580040A6
:400E8000075B0040935800400E4E00400C4E004070B500F0D9FD06462A4B1B782A4B1A7842F001021A701A7842F010021A7010331A7842F001021A701A7842F010021A70D6
:400EC000224D2B7843F002032B70214C237843F0020323701F4A137843F003031370032000F08CFA2B7803F0FD032B70237803F0FD032370184A137843F0060313707A2257
:400F0000164B1A70164A137843F0010313701032137843F0010313700F3A137843F0010313701032137843F0010313704FF000530C4A1360A2F5C0721360304600F088FD03
:400F400070BD00BFD080FF1FAA430040F8460040F9460040915800407758004082580040A143004080E200E008B5084B9B7C4BB9064BDB7C13F0FF0F01D1FFF705FF012262
:400F8000024B9A74FFF784FF08BD00BF6881FF1F024A137843F0010313707047004E0040094B1B7C13F0FF0F03D0074B5B7CDBB203E0064B1B7803F00103012B01D0002894
:400FC000EED01846704700BF6881FF1F014E0040154B1B7803F00303012B07D8134B1888023B1B889BB243EA004013E0022B0AD10E4B1888023B1B7843EA00430C4A107828
:4010000043EA002006E00B4B188883B2074A108843EA0040084B1B7C13F0FF0F02D00022054B5A74704700BF144E0040124E0040114E0040104E00406881FF1F0F4B1B7806
:40104000DBB2012B06D00D4B1B78DBB2022B01D00A4B1B780A4B1B68002B00DA1F335A1147F6122303FB00F090FBF2F00549496903FB01F393FBF2F3C01A7047D080FF1FB8
:40108000448FFF1F6881FF1F704700BF704700BF704700BF704700BF08B500F0D5FC094A137843F020031370FF32137843F010031370A2F20112137843F01003137000F0BB
:4010C000C7FC08BD9A640040014B1878704700BF69650040014B1878704700BF68640040034B1B7813F0040FFAD0024B188070476965004048640040014B188880B2704740
:401100005864004008B501E00E4B1B880E4B1B7813F0200FF8D100F097FC0C4B1A7842F001021A701A7802F0FE021A7001331A7842F001021A701A7802F0FE021A7000F076
:4011400087FC08BD58640040686400409864004008B51F22074B1A70FFF7D4FFFFF7B4FFFFF7B8FF0023044A1370A2F20112137008BD00BF8A6400408965004008B5054BDF
:401180001B7823B9FFF7E4FF0122024B1A70FFF783FF08BD8081FF1F044A137803F07F03C001C0B218431070704700BF1051004010B5002404E02046FFF79AFA0134E4B296
:4011C000012CF8D9FF22014B1A7010BDD180FF1F10B50446FFF7ECFF2046FFF77BFA014B1C7010BDD180FF1F014B188880B2704780400040034B1A7800F0F8001043187071
:40120000704700BF82400040024B187800F00700704700BF8240004070B505460E46FFF7F3FF0446FFF7E0FFA84256D02B4B1B7803F0010294B900B185B938B9284B1D80D3
:40124000284A137803F0BF03137070BD254A137843F040031370224B1D8070BD22B3002321490B7001240F310C7004310B700C390B7803F07F030B701A4B1B7813F0080FAA
:4012800000D08DB9194B18800721013B1970164B1B7813F0010FFAD110490B7803F0FE030B700021104B19700C4B1B7813F0010F0DD00E4B1D800EB1032200E001220A4B01
:4012C0001A70094B1B7813F0010FFAD170BD044B1D8002490B7813430B7070BDA243004080400040824000400140004002400040014B188880B2704700410040034B1A785A
:4013000000F0F80010431870704700BF02410040024B187800F00700704700BF0241004070B505460E46FFF7F3FF0446FFF7E0FFA84256D02B4B1B7803F0010294B900B14C
:4013400085B938B9284B1D80284A137803F0BF03137070BD254A137843F040031370224B1D8070BD22B3002321490B70012413310C7004390B7008390B7803F07F030B7074
:401380001A4B1B7813F0080F00D08DB9194B18800721013B1970164B1B7813F0010FFAD110490B7803F0FE030B700021104B19700C4B1B7813F0010F0DD00E4B1D800EB16B
:4013C000032200E001220A4B1A70094B1B7813F0010FFAD170BD044B1D8002490B7813430B7070BDA14300400041004002410040014000400240004001BE704708B5034B90
:401400001B7A00FB03F000F017FB08BDD480FF1F70B504460E46074B1D681F2802D90020FFF7EAFF04F01F04103455F8240045F8246070BD08ED00E038B504460D460729EC
:4014400002D90020FFF7D8FF1F2C02D90020FFF7D3FF04F01F0000F1604000F564406D01EDB2057038BD00BF044A137803F0BF03800100F0400018431070704710510040B1
:40148000024B1878C0F38010704700BF21510040024B1878C0F34010704700BF21510040044A137803F0FB03800000F0040018431070704720510040044A137803F0FD038F
:4014C000400000F0020018431070704700510040044A137803F0EF03000100F0100018431070704700510040044A137803F07F03C001C0B218431070704700BF0051004052
:40150000044A137803F0DF03400100F02000184310707047005100407222074B1A70202203331A700622603B1A70472210331A7000224F331A7070478865004010B500F0CD
:4015400083FA04460A4A137843F0200313700332137843F010031370013A137843F01003137000F04BF8204600F072FA10BD00BF9865004008B5054B1B7823B9FFF7CCFFD9
:401580000122024B1A70FFF7D9FF08BD8181FF1F014B1878704700BF48650040024B187800F07F00704700BF6B65004010B5FFF7F5FF0402FFF7ECFF204380B210BD00BFB6
:4015C000034B1B7813F0040FFAD1024B187070476A6500404A65004038B5074B1B782BB938BDFFF7EDFF0134A4B201E005460024285D0028F5D138BD8181FF1F054A1378D5
:4016000043F0040313701032137843F004031370704700BFA243004008B56548FEF7EAFE002830D00378DBB2022B11D0032B1DD0012B28D14378DBB25E490B7041685E4B47
:40164000196082685D4B1A600020FFF729FF1AE04378DBB25A490B7041685A4B19608268594B1A600020FFF727FF0CE04378DBB256490B704168564B19608268554B1A6027
:401680000020FFF731FF4C4B1968534A13680B4413604C4B1968514A13680B4413604C4B19684F4A13680B4413604E4B1B7813F0FF0F02D000224B4B1A704B4B1B7813F097
:4016C000FF0F02D00022484B1A70484B1B7813F0FF0F02D00022454B1A703F4B1B68B3F1807F08D33C4A136803F17F430133136001223C4B1A70394B1B68B3F1807F08D3E4
:40170000364A136803F17F43013313600122364B1A70334B1B68B3F1807F08D3304A136803F17F43013313600122304B1A70214B187800F09DF9224B1878FFF7C9FE234B80
:401740001878FFF7DDFE274B187800F085F9264B187800F099F9254B187800F0A1F9174B1B681BB1154A1368013B1360164B1B681BB1154A1368013B1360164B1B681BB168
:40178000144A1368013B13600C4B1B6813B90022094B1A600C4B1B6813B90022094B1A600C4B1B6813B90022094B1A6008BD00BFE881FF1FA286FF1F348FFF1FE481FF1F2A
:4017C000308FFF1FAC86FF1F3C8FFF1F428FFF1FA486FF1F388FFF1F0487FF1F9081FF1F8C81FF1FB086FF1F418FFF1FA886FF1F014B1B681864704708ED00E04001C0B29C
:40180000014B1870704700BF00E400E00122014B1A60704700E100E00122014B1A60704780E100E008B5FFF7F7FF0448FFF7E0FF0420FFF7E3FFFFF7E9FF08BD19160000C0
:4018400000B587B0FFF7B2FEC0B2204B1A68204988541A6801321A601B68013BCB5CDBB20D2B2FD10B4609785A7802EB0122ADF804209B78303B8DF80630144B1B680F2B86
:4018800010DD1448FFF7A8FE0022104B1A6019E0DA1E0F49C95C06A80244303902F8111C013300E00323094A12689342F0DB01A90948FEF77FFC0023044A136000E0013350
:4018C0000F2BFCDD07B05DF804FB00BF6481FF1FB486FF1F142400000C87FF1F014B1B685864704708ED00E04001C0B2014B1870704700BF01E400E00222014B1A6070474D
:4019000000E100E00222014B1A60704780E100E008B5FFF7F7FF0448FFF7E0FF0720FFF7E3FFFFF7E9FF08BD4118000010B50020FFF736FB68B1264B9C68FFF749FBFFF775
:401940007DFBC0EB0010241800D50F342411204B9C601F4B9A681F4B9A4208DC1C4B9A681D4B9A4203DD0122194B1A7402E00022174B1A74FFF784FDB0FA80F04009144CDE
:4019800084F82400002147F6FF70FEF781FDC0F30D00E061FFF77CFDB0FA80F0400984F83800012147F6FF70FEF772FDC0F30D0020630A4A13780133DBB21370092B05D916
:4019C0000122074B1A700022044B1A7010BD00BFF48EFF1FC9E42800B6E428008381FF1FEC8EFF1F014B1B689864704708ED00E04001C0B2014B1870704700BF02E400E056
:401A00000422014B1A60704700E100E00422014B1A60704780E100E008B5FFF7F7FF0448FFF7E0FF0720FFF7E3FFFFF7E9FF08BD2D190000000000000230800803D000BF60
:401A400001380046FCD17047EFF3108072B6704780F31088704700BF044A137803F0FD03400000F0020018431070704720510040044A137803F0FE0300F0010018431070B7
:401A8000704700BF20510040044A137803F0FB03800000F0040018431070704700510040044A137803F0BF03800100F0400018431070704700510040014B1868704700BFFA
:401AC0004481FF1F0E4B70B51E460E4C0025E41AA410A54204D056F8253098470135F8E700F0B6FC084B094C1E46E41AA4100025A54204D056F8253098470135F8E770BD9A
:401B00005C2400005C2400005C2400006424000010B5431E0A44914204D011F8014B03F8014FF8E710BD03460244934202D003F8011BFAE7704700000EB400B54FF4027124
:401B40009CB0ADF814106FF00041049107914FF6FF711DAB02900690084853F8042BADF81610006802A9019300F064F8029B00221A701CB05DF804EB03B070474481FF1FB0
:401B80002DE9F0478E6882469E420C46914698463ED88A8912F4906F3AD02568096902236F1A656905EB450595FBF3F57B1C43449D4238BF1D4653050FD5294600F040FBA1
:401BC000064698B13A462169FFF7A2FFA38923F4906343F08003A38113E02A4600F08EFB064670B92169504600F0DEFA0C23CAF80030A3894FF0FF3043F04003A381BDE86C
:401C0000F08726613E44266046466561ED1BA560464528BF464649463246206800F0A8FAA36800209B1BA36023681E442660BDE8F08700002DE9F04F9DB003938B8980469B
:401C40001C060D4616460DD50B695BB9402100F0F7FA2860286118B90C23C8F80030CDE040236B610023099320238DF82930DFF89CB130238DF82A3037463C4614F8013B8D
:401C80001BB9B7EB060910D003E0252BF9D02746F3E74B46324629464046FFF771FF013000F0A780099B4B4409933B78002B00F0A08000234FF0FF3204930793059206931F
:401CC0008DF853301A930126052221784E4800F041FA671C049B38B14B4A3C46801A06FA00F018430490EFE7D90644BF20228DF853201A0744BF2B228DF8532022782A2AA3
:401D000003D0079A00210A200BE0039A111D12680391002A10DA524243F00200079204900BE027463B780134303B092B03D800FB02320121F5E701B107923B782E2B1ED1E9
:401D40007B782A2B0AD1039B02371A1D1B680392002BB8BF4FF0FF33059310E0002319460593781C0A2407463A780130303A092A03D804FB01210123F5E703B1059103226B
:401D80003978224800F0E6F940B14023CBEB000003FA00F0049B013718430490397806221B487E1C8DF8281000F0D4F988B1194B33B9039B073323F007030833039314E0E9
:401DC00003AB00932A46144B04A94046AFF3008007E003AB00932A460F4B04A9404600F093F8B0F1FF3F824603D0099B5344099342E7AB895B0601D4099801E04FF0FF300A
:401E00001DB0BDE8F08F00BF1A240000202400002424000000000000811B00002DE9F04791461F460A698B6806469342B8BF1346C9F8003091F843200C46DDF8208012B145
:401E40000133C9F800302368990642BFD9F800300233C9F80030256815F0060510D104F1190A07E00123524639463046C04701301AD00135E368D9F800209B1A9D42F1DBC9
:401E800094F843302268003318BF012392060FD5E118302081F843005A1C94F845102244023382F8431003E04FF0FF30BDE8F08704F1430239463046C0470130F4D0226809
:401EC000D9F80050E36802F00602042A08BF5D1B2269A3680CBF25EAE57500259342C4BF9B1AED184FF000091A344D4509D00123224639463046C0470130D5D009F10109AB
:401F0000F3E70020BDE8F0872DE9F04317460A7E85B06E2A984606460C460C9B01F1430E00F0AE8011D8632A22D009D8002A00F0BB80582A40F0CA8081F84520834955E093
:401F4000642A1ED0692A1CD0C0E0732A00F0B08009D86F2A2ED0702A40F0B8800A6842F020020A603EE0752A24D0782A3AD0ADE01A6801F14205111D1960136884F84230AA
:401F8000A8E021681A6811F0800F02D0111D196008E011F0400F02F10401196002D0B2F9003000E01368002B3CDA2D225B4284F8432037E021681A6811F0800F02D0111D16
:401FC000196007E011F0400F02F10401196001D0138800E01368227E5C496F2A14BF0A2208221BE078225A4984F845202268186812F0800F00F104051D6003D1550601D5C2
:40200000038800E00368D00744BF42F0200222601BB9226822F0200222601022002084F8430001E049490A226568002DA56008DB206820F0040020602BB9002D7DD175463E
:402040000CE0002B79D07546B3FBF2F002FB1033CB5C05F8013D03460028F5D1082A0BD12368DA0708D5236962689A42DEBF302305F8013C05F1FF35C5EB0E0323612EE0AC
:4020800008681A6810F0800F496903D0101D1860136808E010F0400F02F104001860136801D0198000E0196000232361754616E01A68111D1960156800216268284600F0CF
:4020C00049F808B1401B6060636804E004F1420584F8422001232361002384F84330CDF800803B4603AA21463046FFF797FE013002D14FF0FF3026E023692A463946304604
:40210000C0470130F5D023689B0710D5002504F1190907E001234A4639463046C0470130E7D00135E368039A9B1A9D42F2DBE068039B9842B8BF184605E00B7804F142051D
:4021400084F842308AE705B0BDE8F0832B2400003C24000010B5C9B202449042034605D01C7801308C42F8D1184610BD002010BD884210B501EB020301D8421E0BE098421C
:40218000FBD28118D21AD34204D013F8014D01F8014DF8E710BD994204D011F8014B02F8014FF8E710BD000038B50546002944D051F8043C0C1F002BB8BFE41800F0D4F81B
:4021C0001E4A1368114613B96360146030E0A3420DD92268A018834201BF18685B681218226063600C6023E0A24203D813465A68002AF9D118681918A1420BD121680144D3
:4022000058188242196013D110685268014419605A600DE002D90C232B6009E021686018824201BF106852680918216062605C602846BDE8384000F098B838BD8881FF1F3A
:4022400070B5CD1C25F0030508350C2D38BF0C25002D064601DBA94202D90C23336046E000F082F8234B1C681A462146A1B10B685B1B0ED40B2B03D90B60CC18CD501EE0D6
:402280008C420BBF63684B681360636018BF0C4615E00C464968E9E7174C23681BB9304600F052F820602946304600F04DF8431C18D0C41C24F00304A0420DD125603046D8
:4022C00000F053F804F10B00231D20F00700C31A0ED05A42E25070BD211A304600F034F80130EBD10C233360304600F03EF8002070BD00BF8881FF1F8481FF1FF8B507462E
:4023000015460E4621B91146BDE8F840FFF798BF1AB9FFF749FF2846F8BD00F027F885420ED929463846FFF78BFF044650B131462A46FFF7EDFB31463846FFF735FF01E025
:402340003046F8BD2046F8BD38B5064C0023054608462360FEF770FA431C02D1236803B12B6038BD488FFF1F7047704751F8040C0028BEBF091851F8043CC0180438704773
:4023800000000000434F4D20706F7274206F70656E0000004A3120506F733A20256C642C204A3220506F733A20256C642C204A3320506F733A20256C640A0D00035B0040E3
:4023C0002443004040000000305100404000F0510040100000000140000880080140800700140140000480180140800300400140000A004C0140000200500140200000004B
:4024000000080140CC0400488000001801404C05004880004E4F00004300232D302B2000686C4C006566674546470030313233343536373839414243444546003031323312
:4024400034353637383961626364656600000000F8B500BFF8BC08BC9E4670474D000000B5080000F8B500BFF8BC08BC9E4670472900000088240000C880FF1F80000000FD
:40248000080E00000000000000000000508FFF1F01FF00000000A08C401901004800000000A24A04000000000000000000000000000000000000000000000000000000004B
:4024C00000000000182400000000000000000000000000000000000000000000000000000000000000000000000000000000000000000000000000000000000000000000A0
:4025000000000000E480FF1F000000000000000000000000000000000000000000000000000000000000000000000000000000000000000000000000000000000000000019
:40254000000000000000000000000000000000000000000000000000000000000000000000000000000000000000000000000000000000000000000000000000000000005B
:40258000000000000000000000000000000000000000000000000000000000000000000000000000000000000000000000000000000000000000000000000000000000001B
:4025C00000000000000000000000000000000000000000000000000000000000000000000000000000000000000000000000000000000000000000000000000000000000DB
:40260000000000000000000000000000000000000000000000000000000000000000000000000000000000000000000000000000000000000000000000000000000000009A
:020000040003F7
:0200000480007A
:400000000452004001640040036500402208014045090140500A0140370B0140021501400718014047190140631A0140441B014003400140024101400242014002430140FB
:4000400002440140014501400546014004470140044801400A4901400D4C01400B4D0140085001400151014008200930608061808A1F88728A0F8B388001B401BE10C036BF
:40008000C105C220C401C5BEC6FDC70CC81FC9FFCAFFCBFFCC23CEF0CF0CD004D804DA04DD01DF01E2C0E440E501E610E711E8C0E901EB11EC40ED01EE40EF0101020540FC
:4000C000068807100C080D020E0A0F011440160217241A081C021E482402253227242D802EC02F28344036053760380239013C023D203E023F404008414844084509460143
:400100004701480249254E02525466506720862087408C128D218E0190A0915A9280932198109C809D119E44A109A2A0AF20B440B720C0F8C2F0C4F0CA70CCF0CEB0D0FE29
:40014000D21CD870EC08003D01020242031004320512082309410A440B940D12144815101633170218301A081B601C321D12238024322502280229A32A302B4C2C302DC378
:400180002E022F3830403222331F340135E0361E370139083AC03E013F4056025724580459045B045C115D105F01820184D188168A288C208E82902092D0942A96449C0C68
:4001C000A0D1A4D1A8D1ACD0AE01B0F0B401B60EB880BA02BB20BE10D608D804D904DB04DC21DD90DF01000503080424054006400720081009080A020D080E8210281140B2
:40020000155A1602182119401A801B281E821F102128228023102620281029412A042B08300831203340388039083A023B103C013D025C80611067016828695A6A026B407B
:4002400070408D20C0FEC2B7C4F7CA0FCC0ECE0FD610D814E602EC10B880BE40D409D804DB04DD10DF010510064007210C020D280F01155A18021C101D901F042544261252
:4002800027402F2A35803626371038803A403C823E284584468047104C804E025710581259045A805E20628064086580668067086F2A7448754076288C129080915B92806C
:4002C0009301981099849B219C889D529E089F50A003A128A2A4A408A728B206B540B602C0F0C2F0C4F0CA70CCF0CEF0D0F0D210D62FD8080203040C0533061107040810D7
:4003000009400B150C1C0D0A0E020F34140915331610170C19031B142020241428102A0C2B08301F3110330F3420356039203B083E103F0140634102450C46BE480D49FFF3
:400340004AFF4BFF4EF04F44500C5401580459045A045B045C225D225F0166C06A406B028407863887018A208B018C728E0C8F0294079658A302A60DAA70B03CB302B46870
:40038000B603B701B880BA22BE40BF44C001C704C9FFCA07CBFFCC40CD20CEF0CF05D008D418D604D804D904DA04DB04DC02DD22DF01E040E1A8E240E32000440102020451
:4003C000044406040A200F1012A0131014281520161019021A041C441D802110221423902604270128082C80303032043404360438443A103D883F2040244580464047018F
:4004000048204B1052A0561458115A045B805D0164046640674078017A8087408C8091019C809D02A080A144A310B401C0EFC224C46ECA84CC06CE7ED016D204D68FD8B00C
:40044000EC1033883620CC70A620A788A620A788A620A7887C08DE019C0845088E019C08D001E4029A039C08A508AE022510A620A788C8201B801E02820183088620A62031
:40048000A788B510C6C0E6400080620166029A039C08A001A440A508B041C002D803E801EE04122074018E20A001B408B508C408DE04E208E802EC080006010102140C0660
:4004C0000D01100612141C06003F0000F3000C60FF000000042A001108600000005440890C0000604C61A306420000600000B300011F0000031F00004F6090000F80000701
:400500007C188C600000A20000000000340120000500000000FFFFFF0200700C040000004000000004040404221100010000C00040011011C00100114001400100000000C6
:40054000000000000000000000000000303800060008400002181D0001101A0003000C04033C1402003E800000268018300000003001000030010000000130000001201C7F
:400580001F20C00200802000000044104502030001E0C0000AFFFFFF62A0F0410C0000000000021104040404212200010000000000004002001030100010101200000000EA
:4005C000000000000000000000000000820000F6F600000008000000800040808000800000000000C00004FBFB00300000000000660000670700000080000000700018017E
:4006000000000000000000000000000000000000000000000000000000000000000000000000000000000000000000000000000000000000000000000000000000000000BA
:40064000000000000000000000000000000000000000000000000000000000000000000000000000000000000000000000000000000000000000000000000000000000007A
:40068000000000000000000000000000000000000000000000000000000000000000000000000000000000000000000000000000000000000000000000000000000000003A
:4006C00000000000000000000000000000000000000000000000000000000000000000000000000000000000000000000000000000000000000000000000000000000000FA
:0200000490006A
:0400000000004005B7
:0200000490105A
:04000000BC90ACAF55
:0200000490303A
:02000000BA2024
:0200000490402A
:4000000000000000000000000000000000000000000000000000000000000000000000000000000000000000000000000000000000000000000000000000000000000000C0
:400040000000000000000000000000000000000000000000000000000000000000000000000000000000000000000000000000000000000000000000000000000000000080
:400080000000000000000000000000000000000000000000000000000000000000000000000000000000000000000000000000000000000000000000000000000000000040
:4000C0000000000000000000000000000000000000000000000000000000000000000000000000000000000000000000000000000000000000000000000000000000000000
:0200000490501A
:0C00000000012E16106900012E24CA8990
:00000001FF