:400000000080002011000000650A0000650A000008B5044B1A6803F53F5302331A6000F041FD00BFFA46004010B5054C237833B9044B13B10448AFF300800123237010BD5B
:400040005081FF1F0000000070290000084B10B51BB108490848AFF300800848036803B910BD074B002BFBD0BDE81040184700BF000000005481FF1F70290000C880FF1FC0
:400080000000000008B562B61F4C47F6FF70208000F00CFB238843EAC0302080012001F097F9012001F0FCFA01F072FB01F082F901F078F801F08AF801F06EFC134800F067
:4000C0002FF8134800F09AF8124800F00DFA124801F090FB002144F2010000F0F7FA012144F2010000F0F2FA01F0F0FD01F0CCFC064800F0E1F8094B1B7813F0FF0FF7D0FA
:400100000022064B1A70F3E7F086FF1FF486FF1FE481FF1FCC8EFF1F7C290000CA8EFF1F10B40024A0F8D047A0F8D247A0F8D44712E0A300234499004318002242529A70FB
:4001400007E004EB84018B00034413440021D97001320F2AF5DD0134632CEADD10BC70470A8844F64A039A4207D045F253639A4203D044F250739A423DD18B78013BDBB22E
:40018000022B38D830B4B0F8D0379BB203EB83039C000253B0F8D0379BB28C7803EB83039A000244947000240BE0B0F8D0379BB20A19D57803EB83039A0002442244D570EB
:4001C00001340F2CF1DDB0F8D02792B201320A4B83FB0231D317C3EB6113642101FB13239BB2A0F8D037B0F8D4379BB201339BB2A0F8D43730BC70471F85EB5110B4002368
:40020000A0F8B034A0F8B234A0F8B43409E05A001A449400011900224A708A6002554A600133632BF3DD10BC704700BF30B4B0F8B444A4B2632C38D8B0F8B044A4B204EB00
:400240004404A50005446A70B0F8B02492B202EB420294000444029AA260B0F8B02492B202EB420294000155B0F8B02492B202EB4202910001444B60B0F8B02492B20132C3
:400280000C4B83FB0231D317C3EB6113642101FB13239BB2A0F8B034B0F8B4349BB201339BB2A0F8B434002001E04FF0FF3030BC704700BF1F85EB51F0B583B00446B0F851
:4002C000D2379BB203EB83039A00835A9BB245F2536293426DD1B0F8D2379BB203EB83039A0002449178B0F8D2379BB203EB83039A000244D278B0F8D2379BB203EB830308
:40030000980020440679B4F8D20780B200EB8000850025446B791B0203EB0643B4F8D20780B200EB800085002544AE79B4F8D20780B200EB80008500254495F807E0B4F893
:40034000D257ADB205EB8505AF002744387A000400EB0E60B4F8D257ADB205EB8505AF0027447D7A00EB0520B4F8D257ADB205EB8505AF002744BD7A284400903344404889
:40038000FFF754FFB4F8D22792B201323D4B83FB0231D317C3EB6113642101FB13239BB2A4F8D237B4F8D4379BB2013B9BB2A4F8D437B4F8D2379BB203EB83039A00A35AA9
:4003C0009BB244F64A02934221D1B4F8D2379BB203EB83039A00224491782B4800F0CCF8B4F8D22792B20132264B83FB0231D317C3EB6113642101FB13239BB2A4F8D237CA
:40040000B4F8D4379BB2013B9BB2A4F8D437B4F8D2379BB203EB83039A00A35A9BB244F25072934229D1B4F8D2379BB203EB83039A002244907800F087F8144D0246144974
:40044000284601F071FE284601F0D4F9B4F8D22792B201320B4B83FB0231D317C3EB6113642101FB13239BB2A4F8D237B4F8D4379BB2013B9BB2A4F8D43703B0F0BD00BF57
:40048000E481FF1F1F85EB51CC8EFF1F9481FF1F8C290000B0F8B4349BB2FBB110B4B0F8B4349BB2013B9BB2A0F8B434B0F8B2349BB203EB43039900B0F8B22492B20132A9
:4004C000084B83FB0234D317C3EB6413642404FB13239BB2A0F8B234084401E00020704710BC70471F85EB5110B5044600210EE001EBC10398002218002353711361137574
:400500009360D3601371235082F8203001310229EEDD002147F6FF7000F0D8F8C0F30D00A4F84000012147F6FF7000F0CFF8C0F30D00A4F86400B4F84030A4F84230B4F868
:400540006430A4F8663010BD10B4431E044CDA00D018810021448868CB68C01A10BC7047CC8EFF1F08B5014642F2107200230006090A01F009FC08BDF0B583B004460129D6
:400580003BD1002001F098F8A368454A12689B1A002B0CDD4FF47A70FFF7E4FF414B00930346012211464048FFF740FE11E0A3683B4A12689B1A002B0BDA4FF47A70FFF72A
:4005C000D1FF384B00930346002201213648FFF72DFEA268324B1B6864339A42F9DCA2682F4B1B68643B9A42F3DB00232361A368E360012001F060F850E002292BD1002071
:4006000001F066F8002001F07BF84FF47A70FFF7A9FF0646244D234F00970346002202212846FFF703FE00973346002203212846FFF7FCFD94F83830DBB2012BFAD1E36AEB
:40064000236300236363A365012001F041F8012001F056F822E0032920D1002001F038F8002001F04DF84FF47A70FFF77BFF0D4B00930346012203210B48FFF7D7FD94F8E1
:400680005C30DBB2012BFAD1236D63650023A365012001F01DF8012001F032F803B0F0BDCC80FF1F400D0300E481FF1F00231A4607E010F0010F01D00132D2B24008013329
:4006C000DBB20F2BF5D902F00100704738B505460C46FFF7EBFF45EAC03085B21CB9002000F076FE04E0012C02D1002000F0D8FF284600F013FE00F005FE10F0010FFAD09B
:400700001CB9012000F064FE04E0012C02D1012000F0C6FF00F0FCFD10F0200FFAD000F009FE1CB9002000F053FE04E0012C02D1002000F0B5FF4FF48040FFF7B7FFC0038E
:4007400040F4804000F4404000F0E8FD00F0DAFD10F0010FFAD01CB9012000F039FE04E0012C02D1012000F09BFF00F0D1FD10F0200FFAD000F0DEFD38BD00BFFEE700BF15
:40078000F0B40022174611E050F82760F3B226F0FF0608E001EB420511F812406D78A5550132013BDBB2002BF4D101371A2FEBD9F0BC70470A4B1B78DBB203F00701094AEA
:4007C00011701B09013213708022074B1A70082203F6D3131A704422A3F28A231A707047CF0100496E5800402D51004008B50A46002101F090FC08BD08B501F081FC08BD67
:4008000070B50024374B1C80502202331A70472202331A80182602331E704D2202331A8002331E7041F61F4202331A8002331E7040F6B73202331A80192502331D700422A8
:4008400029492A48FFF7D8FF0222294B1A7008224FF040231A70032203F500731A70254B1B78DBB2244A1370244B1E8042F25122023B1A800CE0224B1B7803F0010343EA19
:40088000440404F003044FF4F07001F02DFA013D0DB1032CEFD115B90320FFF76FFF194B4FF480721A8007221A70002216490A704820023108701A700222033B1A7004226A
:4008C0000A331A70114A137843F01F031370013A137843F001031370013A137843F08003137070BD80400040F4050048004100400043004008010049A14600402242004065
:40090000254200400440004006400040A2430040012807D8044B53F820201844017A13780B431370704700BF94290000012808D8044B53F820201844017A137823EA010343
:40094000137070479429000038B572B66122344B1A70FFF755FF334A137843F00403137000240BE0304863001A19510001440A46098AD068FFF73AFF0134E4B2082CF1D90A
:4009800000240CE02848A20011194B000344B3F84C20996C586CFFF72FFF0134E4B2012CF0D922494FF09040FFF7EAFE0A24204B1C70204A137843F002031370103213789A
:4009C00043F0020313701C4D2B7843F040032B70A2F58632513A137843F010031370224616491748FFF708FF224616491648FFF703FF224615491648FFF7FEFE22461549D5
:400A00001548FFF7F9FE154A137843F008031370FFF7D0FE0E2229461148FFF7EDFE38BD00480040E8460040942900006C0000488358004003500140A0430040C4050048E5
:400A400000510040D0050048C0510040DC05004810510040E80500482051004022430040B043004008B501F01FFB03680C2B00D1FEE7FEE708B5094B1A681044084BC31AD3
:400A8000802B02DC054B186005E001F00DFB0C2303604FF0FF32104608BD00BFD080FF1F408FFF1F08B5104E104D16E029686B68AC68002204E051F8040B43F8040B04320C
:400AC000A242F8D1E868002203E0002143F8041B04328242F9D11035013E002EE6D101F0E9FAFFF7CFFAFEE7010000004C2A000008B5104A104B1A60104A136843F40073F2
:400B0000136000230AE0032B03D80D4A52F8231000E00C490C4A42F8231001332F2BF2D90A4B1A780A4B1A70074A0A4B1A60FFF70BFF08BD0004FA050CED00E014ED00E09F
:400B400000000000650A00000080FF1FBC760040C080FF1F08ED00E038B59DF81040651EEDB2032D51D8013809282ED8DFE800F0052D2D052D2D0F192D230F2B03D9254896
:400B8000007840B222E02448007840B21EE00F2B03D92248007840B218E02148007840B214E00F2B03D91F48007840B20EE01E48007840B20AE00F2B03D91C48007840B2D9
:400BC00004E01B48007840B200E0002001EB401101FB02F2D20B91B20D2B0BD8C3F10E0192B20A4191B2621E124800EB82020133937005E0631E0F4A02EB83030F229A705A
:400C0000013C0C4B23F8241038BD002000F010FD38BD00BF180100491C010049190100491D0100491A0100491E0100491B0100491F0100497081FF1FF8B5074601F05CF891
:400C400006460D4D2B7843F003032B700B4C237843F0030323700A4B1F70032000F0EAFC2B7803F0FC032B70237803F0FC032370304601F045F8F8BDF8460040F946004016
:400C8000925800402DE9F04104460022C54B1A7401285ED13822C44B1A70042202331A70062201331A70002501331D7001331D703F2201331A7002331D7001331D70013326
:400CC0001D7001260A331E70502203F527631A700A2201331A702C2201331A7001331D70442203331A70482201331A7001331E7002331E70112701331F70192201331A7079
:400D0000972201331A705220FFF796FFC022A74B1A70032201331A70052205331A70022201331A7001331D7001331D70284600F06BFB43F233329E4B1A603146384600F00B
:400D400087FB31466F2000F007FC9A491D2000F07BFC022C60D13822934B1A70042202331A70062201331A70002501331D7001331D703F2201331A7002331D7001331D703C
:400D800001331D7001260A331E70502203F527631A70272201331A702C2201331A7001331D70552203331A705A2201331A704FF00508013383F8008002331E701127013313
:400DC0001F70192201331A70972201331A704420FFF732FF5822754B1A7001331D70053383F80080022201331A7001331D7001331D70284600F008FB4FF47A426C4B1A60BC
:400E00003146384600F024FB31466F2000F0A4FB69491D2000F018FC032C60D13822624B1A70042202331A70062201331A70002501331D7001331D703F2201331A7002336F
:400E40001D7001331D7001331D7001260A331E70502203F527631A70272201331A702C2201331A7001331D70552203331A705A2201331A704FF00508013383F800800233FE
:400E80001E70112701331F70192201331A70972201331A704420FFF7CFFE5822434B1A7001331D70053383F80080022201331A7001331D7001331D70284600F0A5FA4FF4E8
:400EC0007A423B4B1A603146384600F0C1FA31466F2000F041FB39491D2000F0B5FB042C5DD13822304B1A70042202331A70062201331A70002401331C7001331C703F2278
:400F000001331A7002331C7001331C7001331C7001250A331D70502203F527631A70272201331A702C2201331A7001331C70552203331A705A2201331A70052701331F7011
:400F400002331D70112601331E70192201331A70972201331A704420FFF76EFE5822134B1A7001331C7005331F70022201331A7001331C7001331C70204600F045FA4FF45D
:400F80007A420B4B1A602946304600F061FA29466F2000F0E1FA0A491D2000F055FBBDE8F08100BF7081FF1F004E004094580040388FFF1FC5120000C9120000CD120000C8
:400FC000D11200002DE9F04182B0394D4FF0010885F80080374E00247474102000F026FA102000F0A7FA07211D2000F041FB0427314B1F7001331C7007331C702F4A1378E7
:4010000043F0180313702E4B1C7003F2F5231C7001331C700A22A3F209331A7001331C7002331C705B2205331A705E2201331A7004331C701422A3F68C231A70CDF80080EC
:4010400010234FF4004248F6F0510220FFF784FD0223009310234FF4004249F2DA012046FFF77AFD0323009310234FF4004249F2DA012046FFF770FD009710234FF40042A8
:4010800049F2DA012046FFF767FD2B78013B06EB83039A780B4B1A702B78013B36F82320094B1A802878FFF7EDFD02B0BDE8F081D480FF1F7081FF1F96580040075B00403B
:4010C000935800400E4E00400C4E004070B500F013FE06462A4B1B782A4B1A7842F001021A701A7842F010021A7010331A7842F001021A701A7842F010021A70224D2B78E9
:4011000043F002032B70214C237843F0020323701F4A137843F003031370032000F08AFA2B7803F0FD032B70237803F0FD032370184A137843F0060313707A22164B1A703D
:40114000164A137843F0010313701032137843F0010313700F3A137843F0010313701032137843F0010313704FF000530C4A1360A2F5C0721360304600F0C2FD70BD00BF86
:40118000D480FF1FAA430040F8460040F9460040915800407758004082580040A143004080E200E008B5084B9B7C4BB9064BDB7C13F0FF0F01D1FFF705FF0122024B9A74AD
:4011C000FFF784FF08BD00BF7081FF1F024A137843F0010313707047004E0040094B1B7C13F0FF0F03D0074B5B7CDBB203E0064B1B7803F00103012B01D00028EED0184689
:40120000704700BF7081FF1F014E0040154B1B7803F00303012B07D8134B1888023B1B889BB243EA004013E0022B0AD10E4B1888023B1B7843EA00430C4A107843EA0020AC
:4012400006E00B4B188883B2074A108843EA0040084B1B7C13F0FF0F02D00022054B5A74704700BF144E0040124E0040114E0040104E00407081FF1F0F4B1B78DBB2012B50
:4012800006D00D4B1B78DBB2022B01D00A4B1B780A4B1B68002B00DA1F335A1147F6122303FB00F090FBF2F00549496903FB01F393FBF2F3C01A7047D480FF1F388FFF1F46
:4012C0007081FF1F704700BF704700BF704700BF704700BF08B500F00FFD094A137843F020031370FD3A137843F010031370023A137843F01003137000F002FD08BD00BF09
:4013000098650040014B1878704700BF6B640040014B1878704700BF69640040034B1B7813F0040FFAD0024B188070476B64004048640040014B188880B270475864004087
:4013400008B501E00E4B1B880E4B1B7813F0200FF8D100F0D1FC0C4B1A7842F001021A701A7802F0FE021A7001331A7842F001021A701A7802F0FE021A7000F0C1FC08BD74
:4013800058640040696400409864004008B51F22064B1A70FFF7D4FFFFF7B4FFFFF7B8FF0023034A1370023A137008BD886500408B64004008B5054B1B7823B9FFF7E6FFC6
:4013C0000122024B1A70FFF785FF08BD8881FF1F044A137803F07F03C001C0B218431070704700BF1051004010B5002404E02046FFF79CFA0134E4B2012CF8D9FF22014B25
:401400001A7010BDD580FF1F10B50446FFF7ECFF2046FFF77DFA014B1C7010BDD580FF1F014B188880B2704780400040034B1A7800F0F80010431870704700BF8240004017
:40144000024B187800F00700704700BF8240004070B505460E46FFF7F3FF0446FFF7E0FFA84256D02B4B1B7803F0010294B900B185B938B9284B1D80284A137803F0BF0357
:40148000137070BD254A137843F040031370224B1D8070BD22B3002321490B7001240F310C7004310B700C390B7803F07F030B701A4B1B7813F0080F00D08DB9194B188008
:4014C0000721013B1970164B1B7813F0010FFAD110490B7803F0FE030B700021104B19700C4B1B7813F0010F0DD00E4B1D800EB1032200E001220A4B1A70094B1B7813F05D
:40150000010FFAD170BD044B1D8002490B7813430B7070BDA243004080400040824000400140004002400040014B188880B2704700410040034B1A7800F0F80010431870C8
:40154000704700BF02410040024B187800F00700704700BF0241004070B505460E46FFF7F3FF0446FFF7E0FFA84256D02B4B1B7803F0010294B900B185B938B9284B1D808E
:40158000284A137803F0BF03137070BD254A137843F040031370224B1D8070BD22B3002321490B70012413310C7004390B7008390B7803F07F030B701A4B1B7813F0080F5F
:4015C00000D08DB9194B18800721013B1970164B1B7813F0010FFAD110490B7803F0FE030B700021104B19700C4B1B7813F0010F0DD00E4B1D800EB1032200E001220A4BBE
:401600001A70094B1B7813F0010FFAD170BD044B1D8002490B7813430B7070BDA14300400041004002410040014000400240004001BE704708B5034B1B7A00FB03F000F057
:4016400053FB08BDD880FF1F70B504460E46074B1D681F2802D90020FFF7EAFF04F01F04103455F8240045F8246070BD08ED00E038B504460D46072902D90020FFF7D8FF15
:401680001F2C02D90020FFF7D3FF04F01F0000F1604000F564406D01EDB2057038BD00BF044A137803F0BF03800100F0400018431070704710510040044A137803F0FB036D
:4016C000800000F0040018431070704720510040044A137803F0FD03400000F0020018431070704700510040044A137803F0EF03000100F010001843107070470051004030
:40170000044A137803F07F03C001C0B218431070704700BF00510040044A137803F0DF03400100F02000184310707047005100407222084B1A70202203F580731A700622D4
:40174000603B1A70472210331A70002251331A70704700BF8A64004010B500F0CDFA04460A4A137843F02003137002F58072137843F0100313700132137843F010031370F8
:4017800000F04AF8204600F0BBFA10BD9A64004008B5054B1B7823B9FFF7CAFF0122024B1A70FFF7D9FF08BD8981FF1F014B1878704700BF4A640040024B187800F07F0065
:4017C000704700BF6A65004010B5FFF7F5FF0402FFF7ECFF204380B210BD00BF034B1B7813F0040FFAD1024B187070476B6500404B65004038B5074B1B782BB938BDFFF7BE
:40180000EDFF0134A4B201E005460024285D0028F5D138BD8981FF1F054A137843F0040313701032137843F004031370704700BFA243004010B54948FEF72CFEF8B10378FC
:40184000DBB2022B0FD0032B1BD0012B17D14178C9B2434B59714168196082681A610020FFF72AFF0BE04178C9B23D4B83F829104168596282685A630020FFF729FF002389
:4018800052E04178C9B2364B83F84D104168996482689A650020FFF733FFF0E73048DA001A44910042184058916901449161127912F0FF0F06D003EBC3018A0028490A44EB
:4018C0000021117103EBC3018A0025490A449269B2F1807F0BD3D90019448A0020490A44916901F17F41013191610121117103EBC3018A001A490A4412693AB1D90019445E
:401900008A0017490A4411690139116103EBC3018A0013490A4412692AB903EBC3018A0000200F4988500133022BB7DD0C4C607900F006FA94F82900FFF7D6FE94F84D000B
:40194000FFF7EAFE207900F0EFF994F8280000F003FA94F84C0000F00BFA10BDE481FF1FCC8EFF1F014B1B681864704708ED00E04001C0B2014B1870704700BF00E400E04A
:401980000122014B1A60704700E100E00122014B1A60704780E100E008B5FFF7F7FF0448FFF7E0FF0420FFF7E3FFFFF7E9FF08BD3518000010B586B0FFF706FFC4B220465D
:4019C000FFF70CFF1F4B1A681F498C541A6801321A601B68013BCB5CDBB20D2B2FD10B4609785A7802EB0122ADF804209B78303B8DF80630134B1B680F2B10DD1348FFF7C9
:401A0000F9FE00220F4B1A6019E0DA1E0E49C95C06A80244303902F8111C013300E00323084A12689342F0DB01A90948FEF798FB0023044A136000E001330F2BFCDD06B0DE
:401A400010BD00BF6C81FF1FA086FF1FEC290000F486FF1F014B1B685864704708ED00E04001C0B2014B1870704700BF01E400E00222014B1A60704700E100E00222014B33
:401A80001A60704780E100E008B5FFF7F7FF0448FFF7E0FF0720FFF7E3FFFFF7E9FF08BDB519000010B50020FFF798FB68B1734B9C68FFF7ABFBFFF7DFFBC0EB00102418CE
:401AC00000D50F3424116D4B9C606C4B9A686C4B9A4208DC694B9A686A4B9A4203DD0122664B1A7502E00022644B1A7500F00CF9B0FA80F04009614C84F83800002147F6D2
:401B0000FF70FEF7E3FDC0F30D00A4F84000B4F840301AB2B4F842301BB2D31A42F2107293420CDDE06AB4F8402012B2B4F842301BB203F58043D31A0344E3622EE04F49B2
:401B4000B1F840301AB2B1F842301BB2D31A4E4A934218DA0846CC6AB1F8402011B2B0F8422012B28A1A02F58042484B1340002B05DA013B6FEA83426FEA9242531C234484
:401B80003E4AD3620AE03D48C16AB0F840301BB25A18B0F842301BB2D31AC362374CB4F84030A4F8423000F0B7F8B0FA80F0400984F85C00012147F6FF70FEF787FDC0F3FD
:401BC0000D00A4F86400B4F864301AB2B4F866301BB2D31A42F2107293420CDD206DB4F8642012B2B4F866301BB203F58043D31A034423652EE02149B1F864301AB2B1F82B
:401C000066301BB2D31A204A934218DA08460C6DB1F8642011B2B0F8662012B28A1A02F580421A4B1340002B05DA013B6FEA83426FEA9242531C2344104A13650AE00F48EB
:401C4000016DB0F864301BB25A18B0F866301BB2D31A0365094BB3F86420A3F866200C4A13780133DBB21370092B05D90122094B1A700022064B1A7010BD00BFCC8EFF1F3E
:401C8000C9E42800B6E42800F0D8FFFFFF3F00808B81FF1FCA8EFF1F014B1B689864704708ED00E04001C0B2014B1870704700BF02E400E00422014B1A60704700E100E0EB
:401CC0000422014B1A60704780E100E008B5FFF7F7FF0448FFF7E0FF0720FFF7E3FFFFF7E9FF08BDA51A00000230800803D000BF01380046FCD17047EFF3108072B6704735
:401D000080F31088704700BF024B1878C0F38010704700BF21510040024B1878C0F34010704700BF21510040044A137803F0FD03400000F002001843107070472051004091
:401D4000044A137803F0FE0300F0010018431070704700BF20510040044A137803F0FB03800000F0040018431070704700510040044A137803F0BF03800100F040001843A8
:401D8000107070470051004053B94AB9002908BF00281CBF4FF0FF314FF0FF3000F082B9ADF1080C6DE904CE00F006F8DDF804E0DDE9022304B070472DE9F04F8C460C4601
:401DC0000546099E002B4FD18A4217466BD9B2FA82FEBEF1000F0BD0CEF1200520FA05F501FA0EF345EA030C02FA0EF700FA0EF5390CBCFBF1F0BAB201FB10C300FB02F837
:401E00004FEA154C4CEA0344A04509D9E41900F1FF3380F02881A04540F2258102383C44C8EB0404B4FBF1F301FB134C03FB02F2ACB244EA0C418A4209D9C91903F1FF34E9
:401E400080F00F818A4240F20C81023B39448A1A43EA00400021002E63D022FA0EF2002386E80C00BDE8F08F8B4207D9002E56D0002186E811000846BDE8F08FB3FA83F179
:401E8000002940F09380A34202D3824200F2FE80851A64EB03039C460120002E41D086E82010BDE8F08F12B90127B7FBF2F7B7FA87FEBEF1000F36D1E41B4FEA17481FFA97
:401EC00087F90121B4FBF8F308FB134409FB03F24FEA154C4CEA0444A24207D9E41903F1FF3002D2A24200F2D3800346A41AB4FBF8F008FB104809FB00F9ACB244EA08428E
:401F0000914507D9D21900F1FF3402D2914500F2BA802046C9EB020240EA03409BE731463046BDE8F08F07FA0EF7CEF1200C24FA0CF34FEA1748B3FBF8FA1FFA87F908FB06
:401F40001A3520FA0CFC04FA0EF40AFB09FB4CEA040C4FEA1C4242EA05439B4500FA0EF50AD9DB190AF1FF3280F08B809B4540F28880AAF1020A3B44CBEB0303B3FBF8F0A9
:401F800008FB103300FB09F41FFA8CFC4CEA03439C4207D9DB1900F1FF326ED29C426CD902383B441C1B40EA0A418BE7C1F1200E8B4022FA0EFC4CEA030C24FA0EF74FEA46
:401FC0001C49B7FBF9FA1FFA8CF309FB1A7720FA0EF88C400AFB03F548EA04044FEA144848EA0747BD4202FA01F200FA01FB09D917EB0C070AF1FF3041D2BD423FD9AAF1A8
:40200000020A67447F1BB7FBF9F509FB157705FB03F3A4B244EA0747BB4208D917EB0C0705F1FF3027D2BB4225D9023D674445EA0A40A0FB0289FF1A4F4545464C4614D311
:4020400029D066B3BBEB050367EB040707FA0EFECB40CF404EEA030386E888000021BDE8F08F2346F3E61846DAE6B8EB020569EB0C040138E5E70546D9E7104692E782468E
:40208000C0E7924678E702383A4443E7084604E7023B3C442AE7C345E7D33C46D1E73146BDE8F08F704700BF014B1868704700BF4881FF1F0E4B70B51E460E4C0025E41AC4
:4020C000A410A54204D056F8253098470135F8E700F0AAFC084B094C1E46E41AA4100025A54204D056F8253098470135F8E770BD342A0000342A0000342A00003C2A000062
:4021000010B5431E0A44914204D011F8014B03F8014FF8E710BD03460244934202D003F8011BFAE7704700000EB400B54FF402719CB0ADF814106FF00041049107914FF6FF
:40214000FF711DAB02900690084853F8042BADF81610006802A9019300F064F8029B00221A701CB05DF804EB03B070474881FF1F2DE9F0478E6882469E420C4691469846DB
:402180003ED88A8912F4906F3AD02568096902236F1A656905EB450595FBF3F57B1C43449D4238BF1D4653050FD5294600F040FB064698B13A462169FFF7A2FFA38923F414
:4021C000906343F08003A38113E02A4600F08EFB064670B92169504600F0DEFA0C23CAF80030A3894FF0FF3043F04003A381BDE8F08726613E44266046466561ED1BA5607A
:40220000464528BF464649463246206800F0A8FAA36800209B1BA36023681E442660BDE8F08700002DE9F04F9DB003938B8980461C060D4616460DD50B695BB9402100F06E
:40224000F7FA2860286118B90C23C8F80030CDE040236B610023099320238DF82930DFF89CB130238DF82A3037463C4614F8013B1BB9B7EB060910D003E0252BF9D0274645
:40228000F3E74B46324629464046FFF771FF013000F0A780099B4B4409933B78002B00F0A08000234FF0FF3204930793059206938DF853301A930126052221784E4800F0C5
:4022C00041FA671C049B38B14B4A3C46801A06FA00F018430490EFE7D90644BF20228DF853201A0744BF2B228DF8532022782A2A03D0079A00210A200BE0039A111D1268D0
:402300000391002A10DA524243F00200079204900BE027463B780134303B092B03D800FB02320121F5E701B107923B782E2B1ED17B782A2B0AD1039B02371A1D1B68039289
:40234000002BB8BF4FF0FF33059310E0002319460593781C0A2407463A780130303A092A03D804FB01210123F5E703B1059103223978224800F0E6F940B14023CBEB0000BA
:4023800003FA00F0049B013718430490397806221B487E1C8DF8281000F0D4F988B1194B33B9039B073323F007030833039314E003AB00932A46144B04A94046AFF3008072
:4023C00007E003AB00932A460F4B04A9404600F093F8B0F1FF3F824603D0099B5344099342E7AB895B0601D4099801E04FF0FF301DB0BDE8F08F00BFF2290000F82900007D
:40240000FC29000000000000712100002DE9F04791461F460A698B6806469342B8BF1346C9F8003091F843200C46DDF8208012B10133C9F800302368990642BFD9F800304D
:402440000233C9F80030256815F0060510D104F1190A07E00123524639463046C04701301AD00135E368D9F800209B1A9D42F1DB94F843302268003318BF012392060FD5E1
:40248000E118302081F843005A1C94F845102244023382F8431003E04FF0FF30BDE8F08704F1430239463046C0470130F4D02268D9F80050E36802F00602042A08BF5D1B63
:4024C0002269A3680CBF25EAE57500259342C4BF9B1AED184FF000091A344D4509D00123224639463046C0470130D5D009F10109F3E70020BDE8F0872DE9F04317460A7E34
:4025000085B06E2A984606460C460C9B01F1430E00F0AE8011D8632A22D009D8002A00F0BB80582A40F0CA8081F84520834955E0642A1ED0692A1CD0C0E0732A00F0B08079
:4025400009D86F2A2ED0702A40F0B8800A6842F020020A603EE0752A24D0782A3AD0ADE01A6801F14205111D1960136884F84230A8E021681A6811F0800F02D0111D196060
:4025800008E011F0400F02F10401196002D0B2F9003000E01368002B3CDA2D225B4284F8432037E021681A6811F0800F02D0111D196007E011F0400F02F10401196001D0BA
:4025C000138800E01368227E5C496F2A14BF0A2208221BE078225A4984F845202268186812F0800F00F104051D6003D1550601D5038800E00368D00744BF42F02002226028
:402600001BB9226822F0200222601022002084F8430001E049490A226568002DA56008DB206820F0040020602BB9002D7DD175460CE0002B79D07546B3FBF2F002FB1033D3
:40264000CB5C05F8013D03460028F5D1082A0BD12368DA0708D5236962689A42DEBF302305F8013C05F1FF35C5EB0E0323612EE008681A6810F0800F496903D0101D1860E6
:40268000136808E010F0400F02F104001860136801D0198000E0196000232361754616E01A68111D1960156800216268284600F049F808B1401B6060636804E004F1420574
:4026C00084F8422001232361002384F84330CDF800803B4603AA21463046FFF797FE013002D14FF0FF3026E023692A4639463046C0470130F5D023689B0710D5002504F1D5
:40270000190907E001234A4639463046C0470130E7D00135E368039A9B1A9D42F2DBE068039B9842B8BF184605E00B7804F1420584F842308AE705B0BDE8F083032A0000E7
:40274000142A000010B5C9B202449042034605D01C7801308C42F8D1184610BD002010BD884210B501EB020301D8421E0BE09842FBD28118D21AD34204D013F8014D01F826
:40278000014DF8E710BD994204D011F8014B02F8014FF8E710BD000038B50546002944D051F8043C0C1F002BB8BFE41800F0D4F81E4A1368114613B96360146030E0A34270
:4027C0000DD92268A018834201BF18685B681218226063600C6023E0A24203D813465A68002AF9D118681918A1420BD12168014458188242196013D110685268014419607E
:402800005A600DE002D90C232B6009E021686018824201BF106852680918216062605C602846BDE8384000F098B838BD9081FF1F70B5CD1C25F0030508350C2D38BF0C25E4
:40284000002D064601DBA94202D90C23336046E000F082F8234B1C681A462146A1B10B685B1B0ED40B2B03D90B60CC18CD501EE08C420BBF63684B681360636018BF0C4624
:4028800015E00C464968E9E7174C23681BB9304600F052F820602946304600F04DF8431C18D0C41C24F00304A0420DD12560304600F053F804F10B00231D20F00700C31AD8
:4028C0000ED05A42E25070BD211A304600F034F80130EBD10C233360304600F03EF8002070BD00BF9081FF1F8C81FF1FF8B5074615460E4621B91146BDE8F840FFF798BF7D
:402900001AB9FFF749FF2846F8BD00F027F885420ED929463846FFF78BFF044650B131462A46FFF7EDFB31463846FFF735FF01E03046F8BD2046F8BD38B5064C0023054636
:4029400008462360FEF796F8431C02D1236803B12B6038BD3C8FFF1F7047704751F8040C0028BEBF091851F8043CC018043870470000000044F4FF7F01000000434F4D2092
:40298000706F7274206F70656E000000256C640D0A000000035B00402443004040000000305100404000F05100401000000001408008000901400001800A014080050014E5
:4029C0000140000800400140000A004C01400002005001402000000080080140C40400488000000A01404405004880004E4F00004300232D302B2000686C4C0065666745CC
:402A000046470030313233343536373839414243444546003031323334353637383961626364656600000000F8B500BFF8BC08BC9E4670474D000000F10A0000F8B500BFD2
:402A4000F8BC08BC9E46704729000000602A0000C880FF1F88000000F00D00000000000000000000C0E42800408FFF1F01FF00000000A08C401901004800000000A24A042E
:402A80000000000000000000000000000000000000000000000000000000000000000000F029000000000000000000000000000000000000000000000000000000000000FD
:402AC0000000000000000000000000000000000000000000000000000000000000000000E880FF1F0000000000000000000000000000000000000000000000000000000050
:402B00000000000000000000000000000000000000000000000000000000000000000000000000000000000000000000000000000000000000000000000000000000000095
:402B40000000000000000000000000000000000000000000000000000000000000000000000000000000000000000000000000000000000000000000000000000000000055
:402B80000000000000000000000000000000000000000000000000000000000000000000000000000000000000000000000000000000000000000000000000000000000015
:402BC00000000000000000000000000000000000000000000000000000000000000000000000000000000000000000000000000000000000000000000000000000000000D5
:020000040003F7
:0200000480007A
:400000000452004001640040036500402F08014046090140040A0140310B014004140140041501404A18014045190140601A0140431B01400340014002410140024201402D
:400040000243014002440140014501400346014002470140044801400A490140074C0140114D0140085001400151014008200930608061808A72881F8A388B0F0501072208
:4000800009220B040D0D0F10110213281502170D1D1D211D251D291D3110350F37203B203F41403541024210440449FF4AFF4BFF4C024E704F0C500459045A045C105D0120
:4000C0005F0162C0644065016610671168C069016B116C406D016E406F0100A10310085009800A200B8010081141122018441982218422202641274428422C302F883240BB
:4001000035403602370439143B403C203D483E1840404230434045014628475049A04B054E025004525053405D03621863017C407E028D848E108F8090809114928294046D
:40014000950897549C029F02A004A108A280A580A641A720C00FC20FC40FCAE9CCD8CE7ED0FBD21CD80ED409DB04DD10DF010040036808020A2510A81340184019651A2534
:40018000200A22852802292531403220330838283A023B40404441044308480149205040510858015A085B025E825F14640169146A8070BC72028D808E208F40C00FC20F31
:4001C000C40FCA0FCC0ECE0FD007D20CD6F2D81039803F4059045F0120018C01E602EC100001023A050108020A1D0C101101141018631A8C1CC02010241028A329012A5416
:400200002E10341F36E0370138803A203F4056025728580459045B045C015D105F01800C826086028710880489088A508B128C498F019008930C9602980C9A309E019F0133
:40024000A049A11AA304A449A516A708A841AA08AC08AE41B001B11CB27CB402B502B701B808BE11BF40D608D804D904DB04DC11DD90DF01008801120552081009080B81E8
:400280000C180E02102811411555180419011A101D101E021F10218222202702281029022A082D102E10310232803502388839103E085880600367206C286D456F887440FE
:4002C00075408D018E0890889202938194019540961099029A089C029D609F02A004A108A280A468A501A608A7A8B260B350C0DFC2EFC4FFCA23CC89CE4ED608D848020830
:400300000613082C0A0312401A0C203122062431260E3030320F344038023A083E014004460449FF4A074BFF4C404D204EF04F0550085418560458045A045B045C025D2209
:400340005F01604061A8624063208010842C854386118734881C892A8A228B549143931C9414972898099A109C809E03A030A20CA320A755A840A903AB44AD80B140B28011
:40038000B338B460B580B61FB70FB820BB88BE04BF11C042C103C6B0C7ECC838C9FFCAFFCBFFCEF0CF44D00CD401D804D904DA04DB04DC22DD22DF01E6C0EA40EB020010D5
:4003C0000108024004100640071008020A040E050F20110812801608170118501B201E2D2504268027992D282E082F4A360437013C103D0840404504460847014908524040
:400400005340571A5A025D205E025F886004618063407A017B02874088808A109004920298029C80A180A720AA20B102B521C07EC2EAC45CCAF0CCC0CE60D0E1D6F1D80D5B
:40044000E410EC1133883620CC70A620A788A620A788A620A7887C01DE01940145089401D0019401A5082510A620A788C8201B801E02820183088620A620A788B510C6C0B8
:40048000E6400010620266089401A508C002D80310107502881089028C019401AA08B202B410B508C408DE04E001E204E408EA08EC0C000602140C061006110112141C06A9
:4004C0001D01003F00004000113F0200043F190019010006180004001900000019000000002040001E0A01110000200001001800181401090F000020600711180000030078
:40050000000010003405100006DEFC0B1FFFFFFF2300F00C040000004000000004040404211100010000C00040011011C0010011400140010000000000000000000000003F
:400540000000000001200000003040000010B300F3030C00420000004F00900BFF0100004C78A307084F00300470000F0C7F0000030200000F038C4000047C380020AA0091
:40058000000000044306050002000C0E14FFFFFF62A0F0410C0000000000021204040404222200010000000000004002001030100010101200000000000000000000000050
:4005C00000000000820000F6F600000008000000800040C08000800000000000C00004FBFB003000000000006600006707000000800000007000180100000000000000003E
:4006000000000000000000000000000000000000000000000000000000000000000000000000000000000000000000000000000000000000000000000000000000000000BA
:40064000000000000000000000000000000000000000000000000000000000000000000000000000000000000000000000000000000000000000000000000000000000007A
:40068000000000000000000000000000000000000000000000000000000000000000000000000000000000000000000000000000000000000000000000000000000000003A
:4006C00000000000000000000000000000000000000000000000000000000000000000000000000000000000000000000000000000000000000000000000000000000000FA
:0200000490006A
:0400000000004005B7
:0200000490105A
:04000000BC90ACAF55
:0200000490303A
:0200000076F197
:0200000490402A
:4000000000000000000000000000000000000000000000000000000000000000000000000000000000000000000000000000000000000000000000000000000000000000C0
:400040000000000000000000000000000000000000000000000000000000000000000000000000000000000000000000000000000000000000000000000000000000000080
:400080000000000000000000000000000000000000000000000000000000000000000000000000000000000000000000000000000000000000000000000000000000000040
:4000C0000000000000000000000000000000000000000000000000000000000000000000000000000000000000000000000000000000000000000000000000000000000000
:0200000490501A
:0C00000000012E16106900012E27875AFF
:00000001FF