:400000000080002011000000C5050000C505000008B5044B1A6803F53F5302331A6000F0D9FA00BFFA46004010B5054C237833B9044B13B10448AFF300800123237010BD10
:400040004881FF1F0000000028170000084B10B51BB108490848AFF300800848036803B910BD074B002BFBD0BDE81040184700BF000000004C81FF1F28170000C880FF1F84
:400080000000000010B562B601F0FAF800F012FF00F020FE00F032FE01F042FA01F0B6FA01F072F8164B187001F076F8154B1870002000F02BFE28B100F040FE00F074FE56
:4000C000114B1860114800F029F8114800F074F8104801F007F9002000F018FE28B100F02DFE00F061FE084B186001F04DF80A4C207001F051F86070044800F09DF8EAE7C8
:40010000038FFF1F028FFF1F6481FF1F2C87FF1F2082FF1F2C1700001C82FF1F10B40024A0F8D047A0F8D247A0F8D44712E0A300234499004318002242529A7007E004EB4C
:4001400084018B00034413440021D97001320F2AF5DD0134632CEADD10BC704770B4B0F8D0570C88AB002B449A00831884528A789A70002208E08B18DE7805EB8504A30044
:4001800003441344DE7001320F2AF4DD0135094B83FB0532EB17C3EB6213642202FB1353A0F8D037B0F8D4370133A0F8D43770BC704700BF1F85EB5110B40023A0F8B034BB
:4001C000A0F8B234A0F8B43409E05A001A449400011900224A708A6002554A600133632BF3DD10BC704700BFF0B4B0F8B454632D1BD8B0F8B04466002644B700C61972705C
:40020000049AB260C1557360631C0A4A82FB0321DA17C2EB6112642101FB1232A0F8B0240135A0F8B454002001E04FF0FF30F0BC704700BF1F85EB51F0B583B0B0F8D2478F
:4002400004EB84029300C25A45F253639A4234D105464FEA840E0EEB0403980028448178C278067943791B0203EB0643877990F807C0067A360406EB0C66407A06EB002079
:400280007444A6002E44B47A204400903B440C48FFF7AAFFB5F8D22701320A4B83FB0231D317C3EB6113642101FB1323A5F8D237B5F8D437013BA5F8D43703B0F0BD00BFD7
:4002C0002082FF1F1F85EB51B0F8B434B3B110B4013BA0F8B434B0F8B23403EB430291000133084A82FB0324DA17C2EB6412642404FB1232A0F8B224084401E0002070471D
:4003000010BC70471F85EB51FEE700BFF0B40022174611E050F82760F3B226F0FF0608E001EB420511F812406D78A5550132013BDBB2002BF4D101371D2FEBD9F0BC704727
:400340000A4B1B78DBB203F00701094A11701B09013213708022074B1A70082203F6D3131A704422A3F28A231A707047CF0100496E5800402D51004008B50A46002101F069
:40038000CAF908BD08B501F0BBF908BD38B50024344B1C80502202331A70052202331A80182502331D704D2202331A8002331D7041F61F4202331A8002331D7004222A497A
:4003C0002A48FFF7DFFF0222294B1A7008224FF040231A70032203F500731A70254B1B78DBB2254A1370254B1D8042F25122023B1A8019250CE0224B1B7803F0010343EACA
:40040000440404F003044FF4F07001F00DF9013D0DB1032CEFD115B90320FFF775FF194B4FF480721A8007221A70002216490A704820023108701A700222033B1A70042209
:400440000A331A70114A137843F00F031370013A137843F001031370013A137843F08003137038BD804000403C060048004100400043004008010049A146004022420040E8
:40048000254200400440004006400040A2430040012807D8044B53F820201844017A13780B431370704700BF3C170000012808D8044B53F820201844017A137823EA010332
:4004C000137070473C17000038B572B661222C4B1A70FFF75BFF2B4A137843F00403137000240BE0284863001A19510001440A46098AD068FFF740FF0134E4B2062CF1D907
:4005000022494FF09040FFF701FF0A24204B1C70204A137843F0020313701032137843F0020313701C4D2B7843F040032B70A2F58632513A137843F01003137022461749DB
:400540001748FFF71FFF224616491748FFF71AFF082216491648FFF715FF224615491648FFF710FF154A137843F008031370FFF7E7FE0E2229461248FFF704FF38BD00BF8D
:4005800000480040E84600403C170000780000488358004003500140A043004010060048005100401C060048C05100402806004812510040300600482051004022430040C9
:4005C000B043004008B501F06FF803680C2B00D1FEE7FEE708B5104E104D16E029686B68AC68002204E051F8040B43F8040B0432A242F8D1E868002203E0002143F8041B35
:4006000004328242F9D11035013E002EE6D101F051F8FFF737FDFEE701000000A017000008B5104A104B1A60104A136843F40073136000230AE0032B03D80D4A52F82310C4
:4006400000E00C490C4A42F8231001332F2BF2D90A4B1A780A4B1A70074A0A4B1A60FFF733FF08BD0004FA050CED00E014ED00E000000000C50500000080FF1FBC760040BF
:40068000C080FF1F08ED00E038B59DF81040651EEDB2032D51D8013809282ED8DFE800F0052D2D052D2D0F192D230F2B03D92548007840B222E02448007840B21EE00F2B60
:4006C00003D92248007840B218E02148007840B214E00F2B03D91F48007840B20EE01E48007840B20AE00F2B03D91C48007840B204E01B48007840B200E0002001EB40112A
:4007000001FB02F2D20B91B20D2B0BD8C3F10E0192B20A4191B2621E124800EB82020133937005E0631E0F4A02EB83030F229A70013C0C4B23F8241038BD002000F0ECFC3C
:4007400038BD00BF180100491C010049190100491D0100491A0100491E0100491B0100491F010049A481FF1FF8B5074600F064FF06460D4D2B7843F003032B700B4C2378FA
:4007800043F0030323700A4B1F70032000F0C6FC2B7803F0FC032B70237803F0FC032370304600F04DFFF8BDF8460040F9460040925800402DE9F04104460022C54B1A7485
:4007C00001285ED13822C44B1A70042202331A70062201331A70002501331D7001331D703F2201331A7002331D7001331D7001331D7001260A331E70502203F527631A7069
:400800000A2201331A702C2201331A7001331D70442203331A70482201331A7001331E7002331E70112701331F70192201331A70972201331A705220FFF796FFC022A74BF2
:400840001A70032201331A70052205331A70022201331A7001331D7001331D70284600F047FB43F233329E4B1A603146384600F063FB31466F2000F0E3FB9A491D2000F0FA
:4008800057FC022C60D13822934B1A70042202331A70062201331A70002501331D7001331D703F2201331A7002331D7001331D7001331D7001260A331E70502203F5276309
:4008C0001A70272201331A702C2201331A7001331D70552203331A705A2201331A704FF00508013383F8008002331E70112701331F70192201331A70972201331A7044201C
:40090000FFF732FF5822754B1A7001331D70053383F80080022201331A7001331D7001331D70284600F0E4FA4FF47A426C4B1A603146384600F000FB31466F2000F080FBB7
:4009400069491D2000F0F4FB032C60D13822624B1A70042202331A70062201331A70002501331D7001331D703F2201331A7002331D7001331D7001331D7001260A331E70F1
:40098000502203F527631A70272201331A702C2201331A7001331D70552203331A705A2201331A704FF00508013383F8008002331E70112701331F70192201331A70972289
:4009C00001331A704420FFF7CFFE5822434B1A7001331D70053383F80080022201331A7001331D7001331D70284600F081FA4FF47A423B4B1A603146384600F09DFA31465D
:400A00006F2000F01DFB39491D2000F091FB042C5DD13822304B1A70042202331A70062201331A70002401331C7001331C703F2201331A7002331C7001331C7001331C7058
:400A400001250A331D70502203F527631A70272201331A702C2201331A7001331C70552203331A705A2201331A70052701331F7002331D70112601331E70192201331A7021
:400A8000972201331A704420FFF76EFE5822134B1A7001331C7005331F70022201331A7001331C7001331C70204600F021FA4FF47A420B4B1A602946304600F03DFA2946F3
:400AC0006F2000F0BDFA0A491D2000F031FBBDE8F08100BFA481FF1F004E004094580040048FFF1FF50D0000F90D0000FD0D0000010E00002DE9F04182B0394D4FF0010829
:400B000085F80080374E00247474102000F002FA102000F083FA07211D2000F01DFB0427314B1F7001331C7007331C702F4A137843F0180313702E4B1C7003F2F5231C70D2
:400B400001331C700A22A3F209331A7001331C7002331C705B2205331A705E2201331A7004331C701422A3F68C231A70CDF8008010234FF4004248F6F0510220FFF784FD50
:400B80000223009310234FF4004249F2DA012046FFF77AFD0323009310234FF4004249F2DA012046FFF770FD009710234FF4004249F2DA012046FFF767FD2B78013B06EB97
:400BC00083039A780B4B1A702B78013B36F82320094B1A802878FFF7EDFD02B0BDE8F081CC80FF1FA481FF1F96580040075B0040935800400E4E00400C4E004070B500F004
:400C00001BFD06462A4B1B782A4B1A7842F001021A701A7842F010021A7010331A7842F001021A701A7842F010021A70224D2B7843F002032B70214C237843F00203237076
:400C40001F4A137843F003031370032000F066FA2B7803F0FD032B70237803F0FD032370184A137843F0060313707A22164B1A70164A137843F0010313701032137843F027
:400C8000010313700F3A137843F0010313701032137843F0010313704FF000530C4A1360A2F5C0721360304600F0CAFC70BD00BFCC80FF1FAA430040F8460040F946004055
:400CC000915800407758004082580040A143004080E200E008B5084B9B7C4BB9064BDB7C13F0FF0F01D1FFF705FF0122024B9A74FFF784FF08BD00BFA481FF1F024A1378F7
:400D000043F0010313707047004E0040094B1B7C13F0FF0F03D0074B5B7CDBB203E0064B1B7803F00103012B01D00028EED01846704700BFA481FF1F014E0040154B1B78F5
:400D400003F00303012B07D8134B1888023B1B889BB243EA004013E0022B0AD10E4B1888023B1B7843EA00430C4A107843EA002006E00B4B188883B2074A108843EA004011
:400D8000084B1B7C13F0FF0F02D00022054B5A74704700BF144E0040124E0040114E0040104E0040A481FF1F0F4B1B78DBB2012B06D00D4B1B78DBB2022B01D00A4B1B7814
:400DC0000A4B1B68002B00DA1F335A1147F6122303FB00F090FBF2F00549496903FB01F393FBF2F3C01A7047CC80FF1F048FFF1FA481FF1F704700BF704700BF704700BFD6
:400E0000704700BF08B500F017FC094A137843F0200313700132137843F01003137002F58072137843F01003137000F009FC08BD99640040014B1878704700BF6A640040AA
:400E4000014B1878704700BF6A65004008B501E00A4B1B780A4B1B7813F0200FF8D100F0EBFB084B1A7842F001021A701A7802F0FE021A7000F0E4FB08BD00BF5A640040CF
:400E80006A6500409A64004008B50F22074B1A70FFF7DCFFFFF7CEFFFFF7D2FF0023044A137002F58072137008BD00BF896400408A64004008B5054B1B7823B9FFF7E4FF2C
:400EC0000122024B1A70FFF79DFF08BDBC81FF1F10B5002404E02046FFF7E8FA0134E4B2012CF8D9FF22014B1A7010BDCD80FF1F10B50446FFF7ECFF2046FFF7C9FA014BE8
:400F00001C7010BDCD80FF1F014B188880B2704780400040034B1A7800F0F80010431870704700BF82400040024B187800F00700704700BF8240004070B505460E46FFF7F7
:400F4000F3FF0446FFF7E0FFA84256D02B4B1B7803F0010294B900B185B938B9284B1D80284A137803F0BF03137070BD254A137843F040031370224B1D8070BD22B3002390
:400F800021490B7001240F310C7004310B700C390B7803F07F030B701A4B1B7813F0080F00D08DB9194B18800721013B1970164B1B7813F0010FFAD110490B7803F0FE0350
:400FC0000B700021104B19700C4B1B7813F0010F0DD00E4B1D800EB1032200E001220A4B1A70094B1B7813F0010FFAD170BD044B1D8002490B7813430B7070BDA24300400C
:4010000080400040824000400140004002400040014B188880B2704700410040034B1A7800F0F80010431870704700BF02410040024B187800F00700704700BF02410040EC
:4010400070B505460E46FFF7F3FF0446FFF7E0FFA84256D02B4B1B7803F0010294B900B185B938B9284B1D80284A137803F0BF03137070BD254A137843F040031370224B97
:401080001D8070BD22B3002321490B70012413310C7004390B7008390B7803F07F030B701A4B1B7813F0080F00D08DB9194B18800721013B1970164B1B7813F0010FFAD155
:4010C00010490B7803F0FE030B700021104B19700C4B1B7813F0010F0DD00E4B1D800EB1032200E001220A4B1A70094B1B7813F0010FFAD170BD044B1D8002490B78134308
:401100000B7070BDA14300400041004002410040014000400240004001BE704708B5034B1B7A00FB03F000F07FFA08BDD080FF1F70B504460E46074B1D681F2802D9002060
:40114000FFF7EAFF04F01F04103455F8240045F8246070BD08ED00E038B504460D46072902D90020FFF7D8FF1F2C02D90020FFF7D3FF04F01F0000F1604000F564406D01C6
:40118000EDB2057038BD00BF024B1878C0F38010704700BF21510040024B1878C0F34010704700BF21510040044A137803F0FB03800000F004001843107070472051004096
:4011C000044A137803F0FD03400000F0020018431070704700510040044A137803F0EF03000100F0100018431070704700510040044A137803F07F03C001C0B21843107090
:40120000704700BF00510040044A137803F0DF03400100F02000184310707047005100407222084B1A70202203F580731A700622623B1A70472210331A70002250331A70A9
:40124000704700BF8B64004010B500F0F5F904460A4A137843F02003137002F58072137843F010031370023A137843F01003137000F04AF8204600F0E3F910BD9B640040E7
:4012800008B5054B1B7823B9FFF7CAFF0122024B1A70FFF7D9FF08BDBD81FF1F014B1878704700BF48650040024B187800F07F00704700BF6B65004010B5FFF7F5FF040244
:4012C000FFF7ECFF204380B210BD00BF034B1B7813F0040FFAD1024B18707047696500404A65004038B5074B1B782BB938BDFFF7EDFF0134A4B201E005460024285D00288C
:40130000F5D138BDBD81FF1F054A137843F0040313701032137843F004031370704700BFA243004008B56348FEF7CEFF00282CD00278022A10D0032A1BD0012A25D1417814
:401340005D4A117041685D4A116082685C4B1A600020FFF729FF18E041785A4A11704168594A11608268564B5A600020FFF728FF0BE04178554A11704168554A11608268BF
:401380004F4B9A600020FFF733FF4C4B1968514A13680B4413604C4B19684F4A13680B4413604B4B19684D4A13680B4413604C4B1B7813F0FF0F02D00022494B1A70494BA7
:4013C0001B7813F0FF0F02D00022464B1A70464B1B7813F0FF0F02D00022434B1A703D4B1B68B3F1807F08D33A4A136803F17F430133136001223A4B1A70374B1B68B3F139
:40140000807F08D3344A136803F17F43013313600122344B1A70314B1B68B3F1807F08D32E4A136803F17F430133136001222E4B1A70214B187800F013F9224B1878FFF772
:40144000CBFE224B1878FFF7DFFE254B187800F0FBF8244B187800F00FF9234B187800F017F9174B1B681BB1154A1368013B1360134B5B681BB1124A5368013B5360104B73
:401480009B681BB10E4A9368013B93600C4B1B6813B90022094B1A60094B5B6813B90022094B1A60064B9B6813B90022084B1A6008BD00BF2082FF1F6C81FF1F6881FF1F0D
:4014C000C081FF1F7481FF1F7081FF1F7C81FF1F7881FF1F9081FF1F8C81FF1F8881FF1F8681FF1F8581FF1F8481FF1F014B1B681864704708ED00E04001C0B2014B1870EE
:40150000704700BF00E400E00122014B1A60704700E100E00122014B1A60704780E100E008B5FFF7F7FF0448FFF7E0FF0420FFF7E3FFFFF7E9FF08BD2513000000B587B0A2
:40154000FFF7BAFEC0B2204B1A68204988541A6801321A601B68013BCB5CDBB20D2B2FD10B4609785A7802EB0122ADF804209B78303B8DF80630144B1B680F2B10DD144824
:40158000FFF7B0FE0022104B1A6019E0DA1E0F49C95C06A80244303902F8111C013300E00323094A12689342F0DB01A90948FEF7D5FD0023044A136000E001330F2BFCDD2A
:4015C00007B05DF804FB00BF8081FF1FDC86FF1F741700002C87FF1F014B1B685864704708ED00E04001C0B2014B1870704700BF01E400E00222014B1A60704700E100E0EB
:401600000222014B1A60704780E100E008B5FFF7F7FF0448FFF7E0FF0720FFF7E3FFFFF7E9FF08BD3D1500000230800803D000BF01380046FCD17047EFF3108072B670476A
:4016400080F31088704700BF044A137803F0FD03400000F0020018431070704720510040044A137803F0FE0300F0010018431070704700BF20510040044A137803F0FB031E
:40168000800000F0040018431070704700510040044A137803F0BF03800100F0400018431070704700510040014B1868704700BF4081FF1F0E4B70B51E460E4C0025E41AB1
:4016C000A410A54204D056F8253098470135F8E700F054F8084B094C1E46E41AA4100025A54204D056F8253098470135F8E770BD88170000881700008817000090170000C2
:4017000010B5431E0A44914204D011F8014B03F8014FF8E710BD03460244934202D003F8011BFAE77047000000000000434F4D20706F7274206F70656E000000035B004029
:401740002443004040000000305100404000F0510040100000000140001000140140000800400140000A004C0140000200500140200000004E4F000043000000F8B500BF2B
:40178000F8BC08BC9E4670474D00000021060000F8B500BFF8BC08BC9E46704729000000B0170000C880FF1F80000000C00D00000000000001FF00000000A08C40190100FA
:4017C0004800000000A24A04000000000000000000000000000000000000000000000000000000000000000078170000000000000000000000000000000000000000000022
:4018000000000000000000000000000000000000000000000000000000000000000000000000000000000000E080FF1F00000000000000000000000000000000000000002A
:401840000000000000000000000000000000000000000000000000000000000000000000000000000000000000000000000000000000000000000000000000000000000068
:401880000000000000000000000000000000000000000000000000000000000000000000000000000000000000000000000000000000000000000000000000000000000028
:4018C00000000000000000000000000000000000000000000000000000000000000000000000000000000000000000000000000000000000000000000000000000000000E8
:4019000000000000000000000000000000000000000000000000000000000000000000000000000000000000000000000000000000000000000000000000000000000000A7
:020000040003F7
:0200000480007A
:4000000002520040026400400265004002050140010701404A0801404B090140510A0140310B01400215014004160140021701406B18014052190140591A01404D1B014033
:40004000034001400241014002420140024301400244014001450140064601400747014004480140074901400A4C0140094D0140085001400151014008206180890F8B722D
:40008000890F8B388720E408A720000F010403210430050F068F088F090F0A300C20103C11081283160F18BF1C0A1D011E401F162005210223212410283030403108328021
:4000C000343C35303603370738083A203B083F105608580459045B045C225D905F01810284018518870289338B048D18951C976399029B189F40A118A302A501A778A91A6B
:40010000AD1AB201B30FB513B760BB08BE04D602D724D804D904DB04DC10DD10DF01021004020510060107100E180F411440172419081D101E021F2A2018211422402402FF
:4001400026462708280229042A202B402C402F403108325036403701384039243B023D103E443F815C8A5D015E0860046701680869056A68708072018A218E409028911098
:400180009204934294409501964997059A059B359D809F40A220A40CA508A606A722A910AB01B001C0F4C2F0C470CA8FCC9ECEEFD610D81400840407063808010C041004F4
:4001C00012801456160918841C842060240A261028802A043002327F348038083E11401341064220440545CE46FB470D481F49FF4AFF4BFF4C224EF04F0850045409580489
:400200005A045B045C015D115F0162C0644065016610671168C069016B116C406D016E406F018120850289068D668F89939995FF99E69B11A104A5F9A706AF20B140B33E28
:40024000B586B707BB88BF01D602D713D904DB04DC20DD20DF010058010109080A491088130418141B0124082540260127102E022F22360637103D803E283F414004410853
:400280004340480549044B025080522459955E0263026C106D106E046F01762B77248C148D01C00FC20FC40ECAD0CCE0CEF0D00ED20CD68FD808E408E602EC1038203E10A9
:4002C00058045F011F20A7200501070208030C010E020F0815041C021E012506270128032B082D043507360337083B203F404045410242064403460E47C0482449FF4AFF79
:400300004BFF4C624DA04EF04F41500C580459045A045C125D025F016640670269106A306B106D106E106F1280CD84CD852A871489068A808B388C108E60904D928094728E
:4003400095129608972C980199049A329B1A9C029D019E0DA0CDA412A664A88DAA40B070B101B320B480B51EB60FBA82BB20BE10BF05C006C604C9FFCA07CBFFCC40CD2085
:40038000CEF0CF05D008D401D804D904DA04DB04DC11DD22DF01E040E1A8E240E32000400105020404200540081009080A410C100D100F0110881304151018401A011B100A
:4003C0001D401F40202421022210254027042E082F09310832103344370439283A083B043C083F8044484708482049104C044E02524056025740580159085A805B10810259
:4004000088408B209028913D9240930394449784980899089A049B089C809D809E10A08CA223A328A508B410B504B612B740C0CFC28FC44ECA70CC4ECE56D0E0D234D60F55
:40044000E001000302040CC30D310E1C0F0614C3150C1634173319401A281B131F1022202655270C28AA29312A142B0E2F08300F3238330F34C035603710382039203A0A48
:400480003B083E103F4040424103450B46EC480D49FF4AFF4BFF4EF04F44500C5440580459045A045B045C225D125F0166C06A406B02850986108710880489148A098D10DF
:4004C0008E108F0C9110951C970298039A049C0E9F03A405A60AA90CAB11B010B11FB60FB880BE01D418D604D804D904DB04DC21DD20DF01004002800408060207040A1406
:400500000D100E01102012481508184019101A101B081E011F0120042248274028012A482B082F0830A03208332034013608374038403C643E0C40404210432048105080DB
:4005400052905E0262206321674680808310854087448C808E048F019008912896809A469B049C809D109E109F50A020A140A221A310AC01AE10B010B180C0E9C2C6C42E53
:40058000CA2ECCDECE78D007D680D8BEEC1033803620CC30A620A780A620A780A620A7807C08DE019C08450884088F029C08D001E0088E0195109B02A508B110E008EA01E8
:4005C0002510A620A780C8201B808620A620A780B510C640E64001105B025E02821095109B02A201A508C002D603122072108E209210B508C408DC01E208EC0800060101F5
:4006000002140C060D01100612141C06000F0000820000F6F60000000800000080004080800080000000000004FBFB0030000000660000670700000080000000700018015A
:40064000000000000000000000000000000000000000000000000000000000000000000000000000000000000000000000000000000000000000000000000000000000007A
:40068000000000000000000000000000000000000000000000000000000000000000000000000000000000000000000000000000000000000000000000000000000000003A
:4006C00000000000000000000000000000000000000000000000000000000000000000000000000000000000000000000000000000000000000000000000000000000000FA
:4007000000000000000000000000000000000000000000000000000000000000000000000000000000000000000000000000000000000000000000000000000000000000B9
:0200000490006A
:0400000000004005B7
:0200000490105A
:04000000BC90ACAF55
:0200000490303A
:02000000D22903
:0200000490402A
:4000000000000000000000000000000000000000000000000000000000000000000000000000000000000000000000000000000000000000000000000000000000000000C0
:400040000000000000000000000000000000000000000000000000000000000000000000000000000000000000000000000000000000000000000000000000000000000080
:400080000000000000000000000000000000000000000000000000000000000000000000000000000000000000000000000000000000000000000000000000000000000040
:4000C0000000000000000000000000000000000000000000000000000000000000000000000000000000000000000000000000000000000000000000000000000000000000
:0200000490501A
:0C00000000012E16106900012E1FE29274
:00000001FF