:400000000080002011000000BD090000BD09000008B5044B1A6803F53F5302331A6000F0D5FC00BFFA46004010B5054C237833B9044B13B10448AFF300800123237010BD1A
:400040004881FF1F0000000018200000084B10B51BB108490848AFF300800848036803B910BD074B002BFBD0BDE81040184700BF000000004C81FF1F18200000C880FF1F92
:400080000000000008B562B61F4C47F6FF70208000F0B8FA238843EAC0302080012001F02DF9012001F092FA01F006FB01F018F901F00CF801F01EF801F0F2FB134800F0BB
:4000C0002FF8134800F09AF8124800F0D3F9124801F024FB002144F2010000F0A3FA012144F2010000F09EFA01F066FD01F050FC064800F0E1F8094B1B7813F0FF0FF7D04F
:400100000022064B1A70F3E7E086FF1FE486FF1FD481FF1FBC8EFF1F24200000BA8EFF1F10B40024A0F8D047A0F8D247A0F8D44712E0A300234499004318002242529A70AC
:4001400007E004EB84018B00034413440021D97001320F2AF5DD0134632CEADD10BC70470A8844F64A039A4207D045F253639A4203D044F250739A423DD18B78013BDBB22E
:40018000022B38D830B4B0F8D0379BB203EB83039C000253B0F8D0379BB28C7803EB83039A000244947000240BE0B0F8D0379BB20A19D57803EB83039A0002442244D570EB
:4001C00001340F2CF1DDB0F8D02792B201320A4B83FB0231D317C3EB6113642101FB13239BB2A0F8D037B0F8D4379BB201339BB2A0F8D43730BC70471F85EB5110B4002368
:40020000A0F8B034A0F8B234A0F8B43409E05A001A449400011900224A708A6002554A600133632BF3DD10BC704700BF30B4B0F8B444A4B2632C38D8B0F8B044A4B204EB00
:400240004404A50005446A70B0F8B02492B202EB420294000444029AA260B0F8B02492B202EB420294000155B0F8B02492B202EB4202910001444B60B0F8B02492B20132C3
:400280000C4B83FB0231D317C3EB6113642101FB13239BB2A0F8B034B0F8B4349BB201339BB2A0F8B434002001E04FF0FF3030BC704700BF1F85EB51F0B583B00446B0F851
:4002C000D2379BB203EB83039A00835A9BB245F2536293426DD1B0F8D2379BB203EB83039A0002449178B0F8D2379BB203EB83039A000244D278B0F8D2379BB203EB830308
:40030000980020440679B4F8D20780B200EB8000850025446B791B0203EB0643B4F8D20780B200EB800085002544AE79B4F8D20780B200EB80008500254495F807E0B4F893
:40034000D257ADB205EB8505AF002744387A000400EB0E60B4F8D257ADB205EB8505AF0027447D7A00EB0520B4F8D257ADB205EB8505AF002744BD7A2844009033442548A4
:40038000FFF754FFB4F8D22792B20132224B83FB0231D317C3EB6113642101FB13239BB2A4F8D237B4F8D4379BB2013B9BB2A4F8D437B4F8D2379BB203EB83039A00A35AC4
:4003C0009BB244F64A02934221D1B4F8D2379BB203EB83039A0022449178104800F07EF8B4F8D22792B201320B4B83FB0231D317C3EB6113642101FB13239BB2A4F8D2374E
:40040000B4F8D4379BB2013B9BB2A4F8D43703B0F0BD00BFD481FF1F1F85EB51BC8EFF1FB0F8B4349BB2FBB110B4B0F8B4349BB2013B9BB2A0F8B434B0F8B2349BB203EBB2
:4004400043039900B0F8B22492B20132084B83FB0234D317C3EB6413642404FB13239BB2A0F8B234084401E00020704710BC70471F85EB5110B5044600210AE04801221806
:4004800000235371D3601374936013712350137701310229F2DD002147F6FF7000F0C2F8C0F30D002087012147F6FF7000F0BAF8C0F30D00A4F85800238F6387B4F8583029
:4004C000A4F85A3010BD00BF08B5014642F2107200230006090A01F0CFFB08BDF0B583B00446012939D1002001F07CF8A368424A12689B1A002B0CDD4FF47A70FFF7E4FF19
:400500003E4B00930346012211463D48FFF78EFE11E0A368384A12689B1A002B0BDA4FF47A70FFF7D1FF354B00930346002201213348FFF77BFEA2682F4B1B6864339A4221
:40054000F9DCA2682C4B1B68643B9A42F3DB0023E360012001F046F84CE0022929D1002001F04CF8002001F061F84FF47A70FFF7ABFF0646224D214F009703460022022176
:400580002846FFF753FE00973346002203212846FFF74CFE94F83030DBB2012BFAD10023E362E364012001F029F8012001F03EF820E003291ED1002001F020F8002001F093
:4005C00035F84FF47A70FFF77FFF0C4B00930346012203210A48FFF729FE94F85030DBB2012BFAD10023E364012001F007F8012001F01CF803B0F0BDCC80FF1F400D0300F9
:40060000D481FF1F00231A4607E010F0010F01D00132D2B240080133DBB20F2BF5D902F00100704738B505460C46FFF7EBFF45EAC03085B21CB9002000F060FE04E0012C76
:4006400002D1002000F0C2FF284600F0FBFD00F0EDFD10F0010FFAD01CB9012000F04EFE04E0012C02D1012000F0B0FF00F0E4FD10F0200FFAD000F0F1FD1CB9002000F069
:400680003DFE04E0012C02D1002000F09FFF4FF48040FFF7B7FFC00340F4804000F4404000F0D0FD00F0C2FD10F0010FFAD01CB9012000F023FE04E0012C02D1012000F051
:4006C00085FF00F0B9FD10F0200FFAD000F0C6FD38BD00BFFEE700BFF0B40022174611E050F82760F3B226F0FF0608E001EB420511F812406D78A5550132013BDBB2002BAD
:40070000F4D10137192FEBD9F0BC70470A4B1B78DBB203F00701094A11701B09013213708022074B1A70082203F6D3131A704422A3F28A231A707047CF0100496E58004016
:400740002D51004008B50A46002101F05CFC08BD08B501F04DFC08BD70B50024374B1C80502202331A70472202331A80182602331E704D2202331A8002331E7041F61F4259
:4007800002331A8002331E7040F6B73202331A80192502331D70042229492A48FFF7D8FF0222294B1A7008224FF040231A70032203F500731A70254B1B78DBB2244A1370CF
:4007C000244B1E8042F25122023B1A800CE0224B1B7803F0010343EA440404F003044FF4F07001F0F9F9013D0DB1032CEFD115B90320FFF76FFF194B4FF480721A800722F9
:400800001A70002216490A704820023108701A700222033B1A7004220A331A70114A137843F01F031370013A137843F001031370013A137843F08003137070BD8040004053
:40084000FC050048004100400043004008010049A146004022420040254200400440004006400040A2430040012807D8044B53F820201844017A13780B431370704700BFAD
:4008800034200000012808D8044B53F820201844017A137823EA0103137070473420000038B572B66122344B1A70FFF755FF334A137843F00403137000240BE03048630066
:4008C0001A19510001440A46098AD068FFF73AFF0134E4B2082CF1D900240CE02848A20011194B000344B3F84C20996C586CFFF72FFF0134E4B2012CF0D922494FF09040FF
:40090000FFF7EAFE0A24204B1C70204A137843F0020313701032137843F0020313701C4D2B7843F040032B70A2F58632513A137843F010031370224616491748FFF708FF0E
:40094000224616491648FFF703FF224615491648FFF7FEFE224615491548FFF7F9FE154A137843F008031370FFF7D0FE0E2229461148FFF7EDFE38BD00480040E846004001
:4009800034200000680000488358004003500140A0430040CC05004800510040D8050048C0510040E405004810510040F00500482051004022430040B043004008B501F0FB
:4009C000EBFA03680C2B00D1FEE7FEE708B5104E104D16E029686B68AC68002204E051F8040B43F8040B0432A242F8D1E868002203E0002143F8041B04328242F9D110358B
:400A0000013E002EE6D101F0CDFAFFF73BFBFEE701000000B820000008B5104A104B1A60104A136843F40073136000230AE0032B03D80D4A52F8231000E00C490C4A42F863
:400A4000231001332F2BF2D90A4B1A780A4B1A70074A0A4B1A60FFF723FF08BD0004FA050CED00E014ED00E000000000BD0900000080FF1FBC760040C080FF1F08ED00E061
:400A800038B59DF81040651EEDB2032D51D8013809282ED8DFE800F0052D2D052D2D0F192D230F2B03D92548007840B222E02448007840B21EE00F2B03D92248007840B2DF
:400AC00018E02148007840B214E00F2B03D91F48007840B20EE01E48007840B20AE00F2B03D91C48007840B204E01B48007840B200E0002001EB401101FB02F2D20B91B2C6
:400B00000D2B0BD8C3F10E0192B20A4191B2621E124800EB82020133937005E0631E0F4A02EB83030F229A70013C0C4B23F8241038BD002000F012FD38BD00BF180100490B
:400B40001C010049190100491D0100491A0100491E0100491B0100491F0100496881FF1FF8B5074601F040F806460D4D2B7843F003032B700B4C237843F0030323700A4B51
:400B80001F70032000F0ECFC2B7803F0FC032B70237803F0FC032370304601F029F8F8BDF8460040F9460040925800402DE9F04104460022C54B1A7401285ED13822C44BE5
:400BC0001A70042202331A70062201331A70002501331D7001331D703F2201331A7002331D7001331D7001331D7001260A331E70502203F527631A700A2201331A702C22EE
:400C000001331A7001331D70442203331A70482201331A7001331E7002331E70112701331F70192201331A70972201331A705220FFF796FFC022A74B1A70032201331A70B9
:400C4000052205331A70022201331A7001331D7001331D70284600F06DFB43F233329E4B1A603146384600F089FB31466F2000F009FC9A491D2000F07DFC022C60D13822BE
:400C8000934B1A70042202331A70062201331A70002501331D7001331D703F2201331A7002331D7001331D7001331D7001260A331E70502203F527631A70272201331A7080
:400CC0002C2201331A7001331D70552203331A705A2201331A704FF00508013383F8008002331E70112701331F70192201331A70972201331A704420FFF732FF5822754B48
:400D00001A7001331D70053383F80080022201331A7001331D7001331D70284600F00AFB4FF47A426C4B1A603146384600F026FB31466F2000F0A6FB69491D2000F01AFCAC
:400D4000032C60D13822624B1A70042202331A70062201331A70002501331D7001331D703F2201331A7002331D7001331D7001331D7001260A331E70502203F527631A703D
:400D8000272201331A702C2201331A7001331D70552203331A705A2201331A704FF00508013383F8008002331E70112701331F70192201331A70972201331A704420FFF7EB
:400DC000CFFE5822434B1A7001331D70053383F80080022201331A7001331D7001331D70284600F0A7FA4FF47A423B4B1A603146384600F0C3FA31466F2000F043FB3949E6
:400E00001D2000F0B7FB042C5DD13822304B1A70042202331A70062201331A70002401331C7001331C703F2201331A7002331C7001331C7001331C7001250A331D705022E5
:400E400003F527631A70272201331A702C2201331A7001331C70552203331A705A2201331A70052701331F7002331D70112601331E70192201331A70972201331A704420A4
:400E8000FFF76EFE5822134B1A7001331C7005331F70022201331A7001331C7001331C70204600F047FA4FF47A420B4B1A602946304600F063FA29466F2000F0E3FA0A49CF
:400EC0001D2000F057FBBDE8F08100BF6881FF1F004E0040945800401C8FFF1FED110000F1110000F5110000F91100002DE9F04182B0394D4FF0010885F80080374E002417
:400F00007474102000F028FA102000F0A9FA07211D2000F043FB0427314B1F7001331C7007331C702F4A137843F0180313702E4B1C7003F2F5231C7001331C700A22A3F281
:400F400009331A7001331C7002331C705B2205331A705E2201331A7004331C701422A3F68C231A70CDF8008010234FF4004248F6F0510220FFF784FD0223009310234FF49F
:400F8000004249F2DA012046FFF77AFD0323009310234FF4004249F2DA012046FFF770FD009710234FF4004249F2DA012046FFF767FD2B78013B06EB83039A780B4B1A7049
:400FC0002B78013B36F82320094B1A802878FFF7EDFD02B0BDE8F081D080FF1F6881FF1F96580040075B0040935800400E4E00400C4E004070B500F0F7FD06462A4B1B7868
:401000002A4B1A7842F001021A701A7842F010021A7010331A7842F001021A701A7842F010021A70224D2B7843F002032B70214C237843F0020323701F4A137843F00303B1
:401040001370032000F08CFA2B7803F0FD032B70237803F0FD032370184A137843F0060313707A22164B1A70164A137843F0010313701032137843F0010313700F3A1378CF
:4010800043F0010313701032137843F0010313704FF000530C4A1360A2F5C0721360304600F0A6FD70BD00BFD080FF1FAA430040F8460040F9460040915800407758004093
:4010C00082580040A143004080E200E008B5084B9B7C4BB9064BDB7C13F0FF0F01D1FFF705FF0122024B9A74FFF784FF08BD00BF6881FF1F024A137843F0010313707047F6
:40110000004E0040094B1B7C13F0FF0F03D0074B5B7CDBB203E0064B1B7803F00103012B01D00028EED01846704700BF6881FF1F014E0040154B1B7803F00303012B07D89A
:40114000134B1888023B1B889BB243EA004013E0022B0AD10E4B1888023B1B7843EA00430C4A107843EA002006E00B4B188883B2074A108843EA0040084B1B7C13F0FF0F16
:4011800002D00022054B5A74704700BF144E0040124E0040114E0040104E00406881FF1F0F4B1B78DBB2012B06D00D4B1B78DBB2022B01D00A4B1B780A4B1B68002B00DA6A
:4011C0001F335A1147F6122303FB00F090FBF2F00549496903FB01F393FBF2F3C01A7047D080FF1F1C8FFF1F6881FF1F704700BF704700BF704700BF704700BF08B500F0AC
:40120000F3FC094A137843F020031370FF32137843F010031370A2F20112137843F01003137000F0E5FC08BD9A640040014B1878704700BF69650040014B1878704700BF02
:4012400068640040034B1B7813F0040FFAD0024B188070476965004048640040014B188880B270475864004008B501E00E4B1B880E4B1B7813F0200FF8D100F0B5FC0C4BC1
:401280001A7842F001021A701A7802F0FE021A7001331A7842F001021A701A7802F0FE021A7000F0A5FC08BD58640040686400409864004008B51F22074B1A70FFF7D4FFFF
:4012C000FFF7B4FFFFF7B8FF0023044A1370A2F20112137008BD00BF8A6400408965004008B5054B1B7823B9FFF7E4FF0122024B1A70FFF783FF08BD8081FF1F044A137816
:4013000003F07F03C001C0B218431070704700BF1051004010B5002404E02046FFF7B2FA0134E4B2012CF8D9FF22014B1A7010BDD180FF1F10B50446FFF7ECFF2046FFF7F6
:4013400093FA014B1C7010BDD180FF1F014B188880B2704780400040034B1A7800F0F80010431870704700BF82400040024B187800F00700704700BF8240004070B5054620
:401380000E46FFF7F3FF0446FFF7E0FFA84256D02B4B1B7803F0010294B900B185B938B9284B1D80284A137803F0BF03137070BD254A137843F040031370224B1D8070BDFA
:4013C00022B3002321490B7001240F310C7004310B700C390B7803F07F030B701A4B1B7813F0080F00D08DB9194B18800721013B1970164B1B7813F0010FFAD110490B7808
:4014000003F0FE030B700021104B19700C4B1B7813F0010F0DD00E4B1D800EB1032200E001220A4B1A70094B1B7813F0010FFAD170BD044B1D8002490B7813430B7070BDF8
:40144000A243004080400040824000400140004002400040014B188880B2704700410040034B1A7800F0F80010431870704700BF02410040024B187800F00700704700BF06
:401480000241004070B505460E46FFF7F3FF0446FFF7E0FFA84256D02B4B1B7803F0010294B900B185B938B9284B1D80284A137803F0BF03137070BD254A137843F04003C0
:4014C0001370224B1D8070BD22B3002321490B70012413310C7004390B7008390B7803F07F030B701A4B1B7813F0080F00D08DB9194B18800721013B1970164B1B7813F0FC
:40150000010FFAD110490B7803F0FE030B700021104B19700C4B1B7813F0010F0DD00E4B1D800EB1032200E001220A4B1A70094B1B7813F0010FFAD170BD044B1D800249C1
:401540000B7813430B7070BDA14300400041004002410040014000400240004001BE704708B5034B1B7A00FB03F000F035FB08BDD480FF1F70B504460E46074B1D681F2883
:4015800002D90020FFF7EAFF04F01F04103455F8240045F8246070BD08ED00E038B504460D46072902D90020FFF7D8FF1F2C02D90020FFF7D3FF04F01F0000F1604000F599
:4015C00064406D01EDB2057038BD00BF044A137803F0BF03800100F0400018431070704710510040044A137803F0FB03800000F0040018431070704720510040044A137845
:4016000003F0FD03400000F0020018431070704700510040044A137803F0EF03000100F0100018431070704700510040044A137803F07F03C001C0B218431070704700BFAE
:4016400000510040044A137803F0DF03400100F02000184310707047005100407222074B1A70202203331A700622603B1A70472210331A7000224F331A70704788650040B0
:4016800010B500F0B1FA04460A4A137843F0200313700332137843F010031370013A137843F01003137000F04BF8204600F0A0FA10BD00BF9865004008B5054B1B7823B948
:4016C000FFF7CCFF0122024B1A70FFF7D9FF08BD8181FF1F014B1878704700BF48650040024B187800F07F00704700BF6B65004010B5FFF7F5FF0402FFF7ECFF204380B240
:4017000010BD00BF034B1B7813F0040FFAD1024B187070476A6500404A65004038B5074B1B782BB938BDFFF7EDFF0134A4B201E005460024285D0028F5D138BD8181FF1FE1
:40174000054A137843F0040313701032137843F004031370704700BFA243004010B54148FEF75EFEF8B10378DBB2022B0FD0032B1BD0012B17D14178C9B23B4B59714168F7
:4017800019608268DA600020FFF72CFF0BE04178C9B2354B83F82510416819628268DA620020FFF72BFF002342E04178C9B22E4B83F84510416819648268DA640020FFF74C
:4017C00035FFF0E72848590142184058516901445161127912F0FF0F04D0234A02EB431200211171204A02EB43125269B2F1807F09D31D4A02EB4312516901F17F41013184
:40180000516101211171184A02EB4312D2682AB1154A02EB4312D1680139D160124A02EB4312D2681AB95A0100200F4988500133022BC7DD0C4C607900F0FAF994F8250034
:40184000FFF7E8FE94F84500FFF7FCFE207900F0E3F994F8240000F0F7F994F8440000F0FFF910BDD481FF1FBC8EFF1F014B1B681864704708ED00E04001C0B2014B187018
:40188000704700BF00E400E00122014B1A60704700E100E00122014B1A60704780E100E008B5FFF7F7FF0448FFF7E0FF0420FFF7E3FFFFF7E9FF08BD5D17000010B586B0D4
:4018C000FFF716FFC4B22046FFF71CFF1F4B1A681F498C541A6801321A601B68013BCB5CDBB20D2B2FD10B4609785A7802EB0122ADF804209B78303B8DF80630134B1B684B
:401900000F2B10DD1348FFF709FF00220F4B1A6019E0DA1E0E49C95C06A80244303902F8111C013300E00323084A12689342F0DB01A90948FEF714FC0023044A136000E0D6
:4019400001330F2BFCDD06B010BD00BF6481FF1F9086FF1F8C200000E486FF1F014B1B685864704708ED00E04001C0B2014B1870704700BF01E400E00222014B1A607047F9
:4019800000E100E00222014B1A60704780E100E008B5FFF7F7FF0448FFF7E0FF0720FFF7E3FFFFF7E9FF08BDBD18000010B50020FFF7A8FB68B16C4B9C68FFF7BBFBFFF74F
:4019C000EFFBC0EB0010241800D50F342411664B9C60654B9A68654B9A4208DC624B9A68634B9A4203DD01225F4B1A7402E000225D4B1A7400F000F9B0FA80F040095A4C4A
:401A000084F83000002147F6FF70FEF70BFEC0F30D002087238F1AB2638F1BB2D31A42F2107293420ADDA06A228F12B2638F1BB203F58043D31A0344A36228E04A490B8FC5
:401A40001AB24B8F1BB2D31A4A4A934216DA08468C6A0A8F11B2428F12B28A1A02F58042454B1340002B05DA013B6FEA83426FEA9242531C23443C4A936208E03A48816A01
:401A8000038F1BB25A18438F1BB2D31A8362364C238F638700F0B8F8B0FA80F0400984F85000012147F6FF70FEF7BCFDC0F30D00A4F85800B4F858301AB2B4F85A301BB2C4
:401AC000D31A42F2107293420CDDA06CB4F8582012B2B4F85A301BB203F58043D31A0344A3642EE02049B1F858301AB2B1F85A301BB2D31A1F4A934218DA08468C6CB1F818
:401B0000582011B2B0F85A2012B28A1A02F58042194B1340002B05DA013B6FEA83426FEA9242531C2344104A93640AE00E48816CB0F858301BB25A18B0F85A301BB2D31A30
:401B40008364094BB3F85820A3F85A200B4A13780133DBB21370092B05D90122084B1A700022064B1A7010BDBC8EFF1FC9E42800B6E42800F0D8FFFFFF3F00808381FF1F4D
:401B8000BA8EFF1F014B1B689864704708ED00E04001C0B2014B1870704700BF02E400E00422014B1A60704700E100E00422014B1A60704780E100E008B5FFF7F7FF044868
:401BC000FFF7E0FF0720FFF7E3FFFFF7E9FF08BDAD190000000000000230800803D000BF01380046FCD17047EFF3108072B6704780F31088704700BF024B1878C0F3801067
:401C0000704700BF21510040024B1878C0F34010704700BF21510040044A137803F0FD03400000F0020018431070704720510040044A137803F0FE0300F00100184310709A
:401C4000704700BF20510040044A137803F0FB03800000F0040018431070704700510040044A137803F0BF03800100F040001843107070470051004053B94AB9002908BF7B
:401C800000281CBF4FF0FF314FF0FF3000F082B9ADF1080C6DE904CE00F006F8DDF804E0DDE9022304B070472DE9F04F8C460C460546099E002B4FD18A4217466BD9B2FA73
:401CC00082FEBEF1000F0BD0CEF1200520FA05F501FA0EF345EA030C02FA0EF700FA0EF5390CBCFBF1F0BAB201FB10C300FB02F84FEA154C4CEA0344A04509D9E41900F1C2
:401D0000FF3380F02881A04540F2258102383C44C8EB0404B4FBF1F301FB134C03FB02F2ACB244EA0C418A4209D9C91903F1FF3480F00F818A4240F20C81023B39448A1ACD
:401D400043EA00400021002E63D022FA0EF2002386E80C00BDE8F08F8B4207D9002E56D0002186E811000846BDE8F08FB3FA83F1002940F09380A34202D3824200F2FE8009
:401D8000851A64EB03039C460120002E41D086E82010BDE8F08F12B90127B7FBF2F7B7FA87FEBEF1000F36D1E41B4FEA17481FFA87F90121B4FBF8F308FB134409FB03F263
:401DC0004FEA154C4CEA0444A24207D9E41903F1FF3002D2A24200F2D3800346A41AB4FBF8F008FB104809FB00F9ACB244EA0842914507D9D21900F1FF3402D2914500F2BD
:401E0000BA802046C9EB020240EA03409BE731463046BDE8F08F07FA0EF7CEF1200C24FA0CF34FEA1748B3FBF8FA1FFA87F908FB1A3520FA0CFC04FA0EF40AFB09FB4CEAB8
:401E4000040C4FEA1C4242EA05439B4500FA0EF50AD9DB190AF1FF3280F08B809B4540F28880AAF1020A3B44CBEB0303B3FBF8F008FB103300FB09F41FFA8CFC4CEA0343FF
:401E80009C4207D9DB1900F1FF326ED29C426CD902383B441C1B40EA0A418BE7C1F1200E8B4022FA0EFC4CEA030C24FA0EF74FEA1C49B7FBF9FA1FFA8CF309FB1A7720FA51
:401EC0000EF88C400AFB03F548EA04044FEA144848EA0747BD4202FA01F200FA01FB09D917EB0C070AF1FF3041D2BD423FD9AAF1020A67447F1BB7FBF9F509FB157705FB79
:401F000003F3A4B244EA0747BB4208D917EB0C0705F1FF3027D2BB4225D9023D674445EA0A40A0FB0289FF1A4F4545464C4614D329D066B3BBEB050367EB040707FA0EFE69
:401F4000CB40CF404EEA030386E888000021BDE8F08F2346F3E61846DAE6B8EB020569EB0C040138E5E70546D9E7104692E78246C0E7924678E702383A4443E7084604E7C0
:401F8000023B3C442AE7C345E7D33C46D1E73146BDE8F08F704700BF014B1868704700BF4481FF1F0E4B70B51E460E4C0025E41AA410A54204D056F8253098470135F8E7BC
:401FC00000F068F8084B094C1E46E41AA4100025A54204D056F8253098470135F8E770BDA0200000A0200000A0200000A820000010B5431E0A44914204D011F8014B03F8BC
:40200000014FF8E710BD03460244934202D003F8011BFAE770470000000000008CFCFF7F01000000434F4D20706F7274206F70656E000000035B004024430040400000009D
:40204000305100404000F0510040100000000140000880080140800700140140000480180140800300400140000A004C01400002005001402000000000080140CC04004854
:402080008000001801404C05004880004E4F000043000000F8B500BFF8BC08BC9E4670474D000000190A0000F8B500BFF8BC08BC9E46704729000000C8200000C880FF1F69
:4020C00080000000D80D000000000000C0E4280001FF00000000A08C401901004800000000A24A0400000000000000000000000000000000000000000000000000000000F1
:4021000000000000902000000000000000000000000000000000000000000000000000000000000000000000000000000000000000000000000000000000000000000000EF
:4021400000000000E480FF1F0000000000000000000000000000000000000000000000000000000000000000000000000000000000000000000000000000000000000000DD
:40218000000000000000000000000000000000000000000000000000000000000000000000000000000000000000000000000000000000000000000000000000000000001F
:4021C00000000000000000000000000000000000000000000000000000000000000000000000000000000000000000000000000000000000000000000000000000000000DF
:40220000000000000000000000000000000000000000000000000000000000000000000000000000000000000000000000000000000000000000000000000000000000009E
:40224000000000000000000000000000000000000000000000000000000000000000000000000000000000000000000000000000000000000000000000000000000000005E
:020000040003F7
:0200000480007A
:400000000452004001640040036500402208014045090140500A0140370B0140021501400718014047190140631A0140441B014003400140024101400242014002430140FB
:4000400002440140014501400546014004470140044801400A4901400D4C01400B4D0140085001400151014008200930608061808A1F88728A0F8B388001B401BE10C036BF
:40008000C105C220C401C5BEC6FDC70CC81FC9FFCAFFCBFFCC23CEF0CF0CD004D804DA04DD01DF01E2C0E440E501E610E711E8C0E901EB11EC40ED01EE40EF0101020540FC
:4000C000068807100C080D020E0A0F011440160217241A081C021E482402253227242D802EC02F28344036053760380239013C023D203E023F404008414844084509460143
:400100004701480249254E02525466506720862087408C128D218E0190A0915A9280932198109C809D119E44A109A2A0AF20B440B720C0F8C2F0C4F0CA70CCF0CEB0D0FE29
:40014000D21CD870EC08003D01020242031004320512082309410A440B940D12144815101633170218301A081B601C321D12238024322502280229A32A302B4C2C302DC378
:400180002E022F3830403222331F340135E0361E370139083AC03E013F4056025724580459045B045C115D105F01820184D188168A288C208E82902092D0942A96449C0C68
:4001C000A0D1A4D1A8D1ACD0AE01B0F0B401B60EB880BA02BB20BE10D608D804D904DB04DC21DD90DF01000503080424054006400720081009080A020D080E8210281140B2
:40020000155A1602182119401A801B281E821F102128228023102620281029412A042B08300831203340388039083A023B103C013D025C80611067016828695A6A026B407B
:4002400070408D20C0FEC2B7C4F7CA0FCC0ECE0FD610D814E602EC10B880BE40D409D804DB04DD10DF010510064007210C020D280F01155A18021C101D901F042544261252
:4002800027402F2A35803626371038803A403C823E284584468047104C804E025710581259045A805E20628064086580668067086F2A7448754076288C129080915B92806C
:4002C0009301981099849B219C889D529E089F50A003A128A2A4A408A728B206B540B602C0F0C2F0C4F0CA70CCF0CEF0D0F0D210D62FD8080203040C0533061107040810D7
:4003000009400B150C1C0D0A0E020F34140915331610170C19031B142020241428102A0C2B08301F3110330F3420356039203B083E103F0140634102450C46BE480D49FFF3
:400340004AFF4BFF4EF04F44500C5401580459045A045B045C225D225F0166C06A406B028407863887018A208B018C728E0C8F0294079658A302A60DAA70B03CB302B46870
:40038000B603B701B880BA22BE40BF44C001C704C9FFCA07CBFFCC40CD20CEF0CF05D008D418D604D804D904DA04DB04DC02DD22DF01E040E1A8E240E32000440102020451
:4003C000044406040A200F1012A0131014281520161019021A041C441D802110221423902604270128082C80303032043404360438443A103D883F2040244580464047018F
:4004000048204B1052A0561458115A045B805D0164046640674078017A8087408C8091019C809D02A080A144A310B401C0EFC224C46ECA84CC06CE7ED016D204D68FD8B00C
:40044000EC1033883620CC70A620A788A620A788A620A7887C08DE019C0845088E019C08D001E4029A039C08A508AE022510A620A788C8201B801E02820183088620A62031
:40048000A788B510C6C0E6400080620166029A039C08A001A440A508B041C002D803E801EE04122074018E20A001B408B508C408DE04E208E802EC080006010102140C0660
:4004C0000D01100612141C06003F0000F3000C60FF000000042A001108600000005440890C0000604C61A306420000600000B300011F0000031F00004F6090000F80000701
:400500007C188C600000A20000000000340120000500000000FFFFFF0200700C040000004000000004040404221100010000C00040011011C00100114001400100000000C6
:40054000000000000000000000000000303800060008400002181D0001101A0003000C04033C1402003E800000268018300000003001000030010000000130000001201C7F
:400580001F20C00200802000000044104502030001E0C0000AFFFFFF62A0F0410C0000000000021104040404212200010000000000004002001030100010101200000000EA
:4005C000000000000000000000000000820000F6F600000008000000800040808000800000000000C00004FBFB00300000000000660000670700000080000000700018017E
:4006000000000000000000000000000000000000000000000000000000000000000000000000000000000000000000000000000000000000000000000000000000000000BA
:40064000000000000000000000000000000000000000000000000000000000000000000000000000000000000000000000000000000000000000000000000000000000007A
:40068000000000000000000000000000000000000000000000000000000000000000000000000000000000000000000000000000000000000000000000000000000000003A
:4006C00000000000000000000000000000000000000000000000000000000000000000000000000000000000000000000000000000000000000000000000000000000000FA
:0200000490006A
:0400000000004005B7
:0200000490105A
:04000000BC90ACAF55
:0200000490303A
:02000000E6090F
:0200000490402A
:4000000000000000000000000000000000000000000000000000000000000000000000000000000000000000000000000000000000000000000000000000000000000000C0
:400040000000000000000000000000000000000000000000000000000000000000000000000000000000000000000000000000000000000000000000000000000000000080
:400080000000000000000000000000000000000000000000000000000000000000000000000000000000000000000000000000000000000000000000000000000000000040
:4000C0000000000000000000000000000000000000000000000000000000000000000000000000000000000000000000000000000000000000000000000000000000000000
:0200000490501A
:0C00000000012E16106900012E23F6727C
:00000001FF